{
  "contractName": "ClinicalTrial",
  "abi": [
    {
      "anonymous": false,
      "inputs": [
        {
          "indexed": false,
          "internalType": "uint256",
          "name": "trialId",
          "type": "uint256"
        },
        {
          "indexed": false,
          "internalType": "string",
          "name": "dataHash",
          "type": "string"
        }
      ],
      "name": "DataAdded",
      "type": "event"
    },
    {
      "anonymous": false,
      "inputs": [
        {
          "indexed": false,
          "internalType": "uint256",
          "name": "trialId",
          "type": "uint256"
        },
        {
          "indexed": true,
          "internalType": "uint256",
          "name": "patientId",
          "type": "uint256"
        }
      ],
      "name": "PatientConsented",
      "type": "event"
    },
    {
      "anonymous": false,
      "inputs": [
        {
          "indexed": false,
          "internalType": "uint256",
          "name": "id",
          "type": "uint256"
        },
        {
          "indexed": false,
          "internalType": "string",
          "name": "name",
          "type": "string"
        },
        {
          "indexed": true,
          "internalType": "address",
          "name": "institution",
          "type": "address"
        }
      ],
      "name": "TrialCreated",
      "type": "event"
    },
    {
      "inputs": [],
      "name": "trialCounter",
      "outputs": [
        {
          "internalType": "uint256",
          "name": "",
          "type": "uint256"
        }
      ],
      "stateMutability": "view",
      "type": "function",
      "constant": true
    },
    {
      "inputs": [
        {
          "internalType": "uint256",
          "name": "",
          "type": "uint256"
        },
        {
          "internalType": "uint256",
          "name": "",
          "type": "uint256"
        }
      ],
      "name": "trialData",
      "outputs": [
        {
          "internalType": "uint256",
          "name": "timestamp",
          "type": "uint256"
        },
        {
          "internalType": "string",
          "name": "dataHash",
          "type": "string"
        },
        {
          "internalType": "address",
          "name": "submittedBy",
          "type": "address"
        }
      ],
      "stateMutability": "view",
      "type": "function",
      "constant": true
    },
    {
      "inputs": [
        {
          "internalType": "uint256",
          "name": "",
          "type": "uint256"
        }
      ],
      "name": "trials",
      "outputs": [
        {
          "internalType": "uint256",
          "name": "id",
          "type": "uint256"
        },
        {
          "internalType": "string",
          "name": "name",
          "type": "string"
        },
        {
          "internalType": "address",
          "name": "researchInstitution",
          "type": "address"
        },
        {
          "internalType": "bool",
          "name": "isActive",
          "type": "bool"
        }
      ],
      "stateMutability": "view",
      "type": "function",
      "constant": true
    },
    {
      "inputs": [
        {
          "internalType": "string",
          "name": "_name",
          "type": "string"
        }
      ],
      "name": "createTrial",
      "outputs": [],
      "stateMutability": "nonpayable",
      "type": "function"
    },
    {
      "inputs": [
        {
          "internalType": "uint256",
          "name": "_trialId",
          "type": "uint256"
        },
        {
          "internalType": "uint256",
          "name": "_patientId",
          "type": "uint256"
        }
      ],
      "name": "consentToTrial",
      "outputs": [],
      "stateMutability": "nonpayable",
      "type": "function"
    },
    {
      "inputs": [
        {
          "internalType": "uint256",
          "name": "_trialId",
          "type": "uint256"
        },
        {
          "internalType": "string",
          "name": "_dataHash",
          "type": "string"
        }
      ],
      "name": "addTrialData",
      "outputs": [],
      "stateMutability": "nonpayable",
      "type": "function"
    },
    {
      "inputs": [
        {
          "internalType": "uint256",
          "name": "_trialId",
          "type": "uint256"
        }
      ],
      "name": "getTrialData",
      "outputs": [
        {
          "components": [
            {
              "internalType": "uint256",
              "name": "timestamp",
              "type": "uint256"
            },
            {
              "internalType": "string",
              "name": "dataHash",
              "type": "string"
            },
            {
              "internalType": "address",
              "name": "submittedBy",
              "type": "address"
            }
          ],
          "internalType": "struct ClinicalTrial.DataPoint[]",
          "name": "",
          "type": "tuple[]"
        }
      ],
      "stateMutability": "view",
      "type": "function",
      "constant": true
    }
  ],
  "bytecode": "0x608060405234801561001057600080fd5b50611120806100206000396000f3fe608060405234801561001057600080fd5b506004361061007d5760003560e01c8063c11262491161005b578063c1126249146100ec578063cf36002d1461010a578063da5fb57a1461013d578063f2ce2018146101595761007d565b80633532dcce1461008257806337b05d551461009e5780639a982f76146100d0575b600080fd5b61009c60048036038101906100979190610a9f565b610189565b005b6100b860048036038101906100b39190610afb565b610347565b6040516100c793929190610c13565b60405180910390f35b6100ea60048036038101906100e59190610c51565b610436565b005b6100f461053f565b6040516101019190610c9a565b60405180910390f35b610124600480360381019061011f9190610cb5565b610545565b6040516101349493929190610cfd565b60405180910390f35b61015760048036038101906101529190610afb565b61062a565b005b610173600480360381019061016e9190610cb5565b610708565b6040516101809190610ec3565b60405180910390f35b3373ffffffffffffffffffffffffffffffffffffffff166001600084815260200190815260200160002060020160009054906101000a900473ffffffffffffffffffffffffffffffffffffffff1673ffffffffffffffffffffffffffffffffffffffff161461022d576040517f08c379a000000000000000000000000000000000000000000000000000000000815260040161022490610f57565b60405180910390fd5b6002600083815260200190815260200160002060405180606001604052804281526020018381526020013373ffffffffffffffffffffffffffffffffffffffff1681525090806001815401808255809150506001900390600052602060002090600302016000909190919091506000820151816000015560208201518160010190805190602001906102c092919061086c565b5060408201518160020160006101000a81548173ffffffffffffffffffffffffffffffffffffffff021916908373ffffffffffffffffffffffffffffffffffffffff16021790555050507fb35d322946378a6988952f6ec334d7458ce97c42fbb3ecfc1e00a5062c553a0a828260405161033b929190610f77565b60405180910390a15050565b6002602052816000526040600020818154811061036357600080fd5b90600052602060002090600302016000915091505080600001549080600101805461038d90610fd6565b80601f01602080910402602001604051908101604052809291908181526020018280546103b990610fd6565b80156104065780601f106103db57610100808354040283529160200191610406565b820191906000526020600020905b8154815290600101906020018083116103e957829003601f168201915b5050505050908060020160009054906101000a900473ffffffffffffffffffffffffffffffffffffffff16905083565b60008081548092919061044890611036565b919050555060006001600080548152602001908152602001600020905060005481600001819055508181600101908051906020019061048892919061086c565b50338160020160006101000a81548173ffffffffffffffffffffffffffffffffffffffff021916908373ffffffffffffffffffffffffffffffffffffffff16021790555060018160020160146101000a81548160ff0219169083151502179055503373ffffffffffffffffffffffffffffffffffffffff167f921ca27c1fbd397e2fd38227b3bdded86459af82c61a704b4612db5311b7b66560005484604051610533929190610f77565b60405180910390a25050565b60005481565b600160205280600052604060002060009150905080600001549080600101805461056e90610fd6565b80601f016020809104026020016040519081016040528092919081815260200182805461059a90610fd6565b80156105e75780601f106105bc576101008083540402835291602001916105e7565b820191906000526020600020905b8154815290600101906020018083116105ca57829003601f168201915b5050505050908060020160009054906101000a900473ffffffffffffffffffffffffffffffffffffffff16908060020160149054906101000a900460ff16905084565b6001600083815260200190815260200160002060020160149054906101000a900460ff1661068d576040517f08c379a0000000000000000000000000000000000000000000000000000000008152600401610684906110ca565b60405180910390fd5b6001806000848152602001908152602001600020600301600083815260200190815260200160002060006101000a81548160ff021916908315150217905550807fa476b08bf72dce7c8aec32e8d9c33e5c6f397c3625cfb12afd3228d145e574cf836040516106fc9190610c9a565b60405180910390a25050565b606060026000838152602001908152602001600020805480602002602001604051908101604052809291908181526020016000905b8282101561086157838290600052602060002090600302016040518060600160405290816000820154815260200160018201805461077a90610fd6565b80601f01602080910402602001604051908101604052809291908181526020018280546107a690610fd6565b80156107f35780601f106107c8576101008083540402835291602001916107f3565b820191906000526020600020905b8154815290600101906020018083116107d657829003601f168201915b505050505081526020016002820160009054906101000a900473ffffffffffffffffffffffffffffffffffffffff1673ffffffffffffffffffffffffffffffffffffffff1673ffffffffffffffffffffffffffffffffffffffff16815250508152602001906001019061073d565b505050509050919050565b82805461087890610fd6565b90600052602060002090601f01602090048101928261089a57600085556108e1565b82601f106108b357805160ff19168380011785556108e1565b828001600101855582156108e1579182015b828111156108e05782518255916020019190600101906108c5565b5b5090506108ee91906108f2565b5090565b5b8082111561090b5760008160009055506001016108f3565b5090565b6000604051905090565b600080fd5b600080fd5b6000819050919050565b61093681610923565b811461094157600080fd5b50565b6000813590506109538161092d565b92915050565b600080fd5b600080fd5b6000601f19601f8301169050919050565b7f4e487b7100000000000000000000000000000000000000000000000000000000600052604160045260246000fd5b6109ac82610963565b810181811067ffffffffffffffff821117156109cb576109ca610974565b5b80604052505050565b60006109de61090f565b90506109ea82826109a3565b919050565b600067ffffffffffffffff821115610a0a57610a09610974565b5b610a1382610963565b9050602081019050919050565b82818337600083830152505050565b6000610a42610a3d846109ef565b6109d4565b905082815260208101848484011115610a5e57610a5d61095e565b5b610a69848285610a20565b509392505050565b600082601f830112610a8657610a85610959565b5b8135610a96848260208601610a2f565b91505092915050565b60008060408385031215610ab657610ab5610919565b5b6000610ac485828601610944565b925050602083013567ffffffffffffffff811115610ae557610ae461091e565b5b610af185828601610a71565b9150509250929050565b60008060408385031215610b1257610b11610919565b5b6000610b2085828601610944565b9250506020610b3185828601610944565b9150509250929050565b610b4481610923565b82525050565b600081519050919050565b600082825260208201905092915050565b60005b83811015610b84578082015181840152602081019050610b69565b83811115610b93576000848401525b50505050565b6000610ba482610b4a565b610bae8185610b55565b9350610bbe818560208601610b66565b610bc781610963565b840191505092915050565b600073ffffffffffffffffffffffffffffffffffffffff82169050919050565b6000610bfd82610bd2565b9050919050565b610c0d81610bf2565b82525050565b6000606082019050610c286000830186610b3b565b8181036020830152610c3a8185610b99565b9050610c496040830184610c04565b949350505050565b600060208284031215610c6757610c66610919565b5b600082013567ffffffffffffffff811115610c8557610c8461091e565b5b610c9184828501610a71565b91505092915050565b6000602082019050610caf6000830184610b3b565b92915050565b600060208284031215610ccb57610cca610919565b5b6000610cd984828501610944565b91505092915050565b60008115159050919050565b610cf781610ce2565b82525050565b6000608082019050610d126000830187610b3b565b8181036020830152610d248186610b99565b9050610d336040830185610c04565b610d406060830184610cee565b95945050505050565b600081519050919050565b600082825260208201905092915050565b6000819050602082019050919050565b610d7e81610923565b82525050565b600082825260208201905092915050565b6000610da082610b4a565b610daa8185610d84565b9350610dba818560208601610b66565b610dc381610963565b840191505092915050565b610dd781610bf2565b82525050565b6000606083016000830151610df56000860182610d75565b5060208301518482036020860152610e0d8282610d95565b9150506040830151610e226040860182610dce565b508091505092915050565b6000610e398383610ddd565b905092915050565b6000602082019050919050565b6000610e5982610d49565b610e638185610d54565b935083602082028501610e7585610d65565b8060005b85811015610eb15784840389528151610e928582610e2d565b9450610e9d83610e41565b925060208a01995050600181019050610e79565b50829750879550505050505092915050565b60006020820190508181036000830152610edd8184610e4e565b905092915050565b7f4f6e6c792074686520726573656172636820696e737469747574696f6e20636160008201527f6e2061646420646174612e000000000000000000000000000000000000000000602082015250565b6000610f41602b83610b55565b9150610f4c82610ee5565b604082019050919050565b60006020820190508181036000830152610f7081610f34565b9050919050565b6000604082019050610f8c6000830185610b3b565b8181036020830152610f9e8184610b99565b90509392505050565b7f4e487b7100000000000000000000000000000000000000000000000000000000600052602260045260246000fd5b60006002820490506001821680610fee57607f821691505b60208210810361100157611000610fa7565b5b50919050565b7f4e487b7100000000000000000000000000000000000000000000000000000000600052601160045260246000fd5b600061104182610923565b91507fffffffffffffffffffffffffffffffffffffffffffffffffffffffffffffffff820361107357611072611007565b5b600182019050919050565b7f5468697320747269616c206973206e6f206c6f6e676572206163746976652e00600082015250565b60006110b4601f83610b55565b91506110bf8261107e565b602082019050919050565b600060208201905081810360008301526110e3816110a7565b905091905056fea264697066735822122009481d4e03c80c37639c2a1c8676104b3c0e35a30fe539d97647453975c5ef8864736f6c634300080d0033",
  "immutableReferences": {},
  "source": "// SPDX-License-Identifier: MIT\r\npragma solidity ^0.8.13;\r\n\r\ncontract ClinicalTrial {\r\n\r\n    struct Trial {\r\n        uint id;\r\n        string name;\r\n        address researchInstitution;\r\n        bool isActive;\r\n        mapping(uint => bool) participants; // patientId => isParticipant\r\n    }\r\n\r\n    struct DataPoint {\r\n        uint timestamp;\r\n        string dataHash; // Hash of anonymized data for AI model building\r\n        address submittedBy;\r\n    }\r\n\r\n    uint public trialCounter;\r\n    mapping(uint => Trial) public trials;\r\n    mapping(uint => DataPoint[]) public trialData; // trialId => data points\r\n\r\n    event TrialCreated(uint id, string name, address indexed institution);\r\n    event PatientConsented(uint trialId, uint indexed patientId);\r\n    event DataAdded(uint trialId, string dataHash);\r\n\r\n    function createTrial(string memory _name) public {\r\n        trialCounter++;\r\n        Trial storage newTrial = trials[trialCounter];\r\n        newTrial.id = trialCounter;\r\n        newTrial.name = _name;\r\n        newTrial.researchInstitution = msg.sender;\r\n        newTrial.isActive = true;\r\n        emit TrialCreated(trialCounter, _name, msg.sender);\r\n    }\r\n\r\n    // Called by a patient to join a trial\r\n    function consentToTrial(uint _trialId, uint _patientId) public {\r\n        require(trials[_trialId].isActive, \"This trial is no longer active.\");\r\n        trials[_trialId].participants[_patientId] = true;\r\n        emit PatientConsented(_trialId, _patientId);\r\n    }\r\n\r\n    // Called by the research institution to add tamper-proof data\r\n    function addTrialData(uint _trialId, string memory _dataHash) public {\r\n        require(trials[_trialId].researchInstitution == msg.sender, \"Only the research institution can add data.\");\r\n        trialData[_trialId].push(DataPoint(block.timestamp, _dataHash, msg.sender));\r\n        emit DataAdded(_trialId, _dataHash);\r\n    }\r\n\r\n    function getTrialData(uint _trialId) public view returns (DataPoint[] memory) {\r\n        return trialData[_trialId];\r\n    }\r\n}\r\n",
  "sourcePath": "C:\\Users\\Aishwarya.Sreejith\\HealthcareBlockchain\\contracts\\ClinicalTrial.sol",
  "compiler": {
    "name": "solc",
    "version": "0.8.13+commit.abaa5c0e.Emscripten.clang"
  },
  "schemaVersion": "3.4.16",
  "updatedAt": "2025-11-13T19:12:32.808Z",
  "networkType": "ethereum",
  "devdoc": {
    "kind": "dev",
    "methods": {},
    "version": 1
  },
  "userdoc": {
    "kind": "user",
    "methods": {},
    "version": 1
  }
}