{
  "contractName": "DrugSupplyChain",
  "abi": [
    {
      "anonymous": false,
      "inputs": [
        {
          "indexed": false,
          "internalType": "uint256",
          "name": "drugId",
          "type": "uint256"
        },
        {
          "indexed": false,
          "internalType": "string",
          "name": "name",
          "type": "string"
        },
        {
          "indexed": false,
          "internalType": "uint256",
          "name": "manufacturerId",
          "type": "uint256"
        }
      ],
      "name": "DrugAdded",
      "type": "event"
    },
    {
      "anonymous": false,
      "inputs": [
        {
          "indexed": false,
          "internalType": "uint256",
          "name": "drugId",
          "type": "uint256"
        },
        {
          "indexed": false,
          "internalType": "enum DrugSupplyChain.State",
          "name": "newState",
          "type": "uint8"
        }
      ],
      "name": "DrugStateUpdated",
      "type": "event"
    },
    {
      "anonymous": false,
      "inputs": [
        {
          "indexed": false,
          "internalType": "uint256",
          "name": "id",
          "type": "uint256"
        },
        {
          "indexed": false,
          "internalType": "string",
          "name": "name",
          "type": "string"
        }
      ],
      "name": "ManufacturerRegistered",
      "type": "event"
    },
    {
      "inputs": [
        {
          "internalType": "address",
          "name": "",
          "type": "address"
        }
      ],
      "name": "addressToManufacturerId",
      "outputs": [
        {
          "internalType": "uint256",
          "name": "",
          "type": "uint256"
        }
      ],
      "stateMutability": "view",
      "type": "function",
      "constant": true
    },
    {
      "inputs": [],
      "name": "drugCounter",
      "outputs": [
        {
          "internalType": "uint256",
          "name": "",
          "type": "uint256"
        }
      ],
      "stateMutability": "view",
      "type": "function",
      "constant": true
    },
    {
      "inputs": [
        {
          "internalType": "uint256",
          "name": "",
          "type": "uint256"
        }
      ],
      "name": "drugs",
      "outputs": [
        {
          "internalType": "uint256",
          "name": "id",
          "type": "uint256"
        },
        {
          "internalType": "string",
          "name": "name",
          "type": "string"
        },
        {
          "internalType": "uint256",
          "name": "manufacturerId",
          "type": "uint256"
        },
        {
          "internalType": "enum DrugSupplyChain.State",
          "name": "currentState",
          "type": "uint8"
        }
      ],
      "stateMutability": "view",
      "type": "function",
      "constant": true
    },
    {
      "inputs": [],
      "name": "manufacturerCounter",
      "outputs": [
        {
          "internalType": "uint256",
          "name": "",
          "type": "uint256"
        }
      ],
      "stateMutability": "view",
      "type": "function",
      "constant": true
    },
    {
      "inputs": [
        {
          "internalType": "uint256",
          "name": "",
          "type": "uint256"
        }
      ],
      "name": "manufacturers",
      "outputs": [
        {
          "internalType": "uint256",
          "name": "id",
          "type": "uint256"
        },
        {
          "internalType": "string",
          "name": "name",
          "type": "string"
        },
        {
          "internalType": "address",
          "name": "walletAddress",
          "type": "address"
        },
        {
          "internalType": "bool",
          "name": "isRegistered",
          "type": "bool"
        }
      ],
      "stateMutability": "view",
      "type": "function",
      "constant": true
    },
    {
      "inputs": [
        {
          "internalType": "string",
          "name": "_name",
          "type": "string"
        }
      ],
      "name": "registerManufacturer",
      "outputs": [],
      "stateMutability": "nonpayable",
      "type": "function"
    },
    {
      "inputs": [
        {
          "internalType": "string",
          "name": "_name",
          "type": "string"
        }
      ],
      "name": "addDrug",
      "outputs": [],
      "stateMutability": "nonpayable",
      "type": "function"
    },
    {
      "inputs": [
        {
          "internalType": "uint256",
          "name": "_drugId",
          "type": "uint256"
        }
      ],
      "name": "updateDrugState",
      "outputs": [],
      "stateMutability": "nonpayable",
      "type": "function"
    },
    {
      "inputs": [],
      "name": "getMyManufacturerProfile",
      "outputs": [
        {
          "internalType": "uint256",
          "name": "",
          "type": "uint256"
        },
        {
          "internalType": "string",
          "name": "",
          "type": "string"
        }
      ],
      "stateMutability": "view",
      "type": "function",
      "constant": true
    },
    {
      "inputs": [
        {
          "internalType": "uint256",
          "name": "_drugId",
          "type": "uint256"
        }
      ],
      "name": "getDrugHistory",
      "outputs": [
        {
          "components": [
            {
              "internalType": "uint256",
              "name": "timestamp",
              "type": "uint256"
            },
            {
              "internalType": "address",
              "name": "scannedBy",
              "type": "address"
            },
            {
              "internalType": "enum DrugSupplyChain.State",
              "name": "stateAtScan",
              "type": "uint8"
            }
          ],
          "internalType": "struct DrugSupplyChain.Checkpoint[]",
          "name": "",
          "type": "tuple[]"
        }
      ],
      "stateMutability": "view",
      "type": "function",
      "constant": true
    },
    {
      "inputs": [],
      "name": "getAllManufacturers",
      "outputs": [
        {
          "internalType": "uint256[]",
          "name": "",
          "type": "uint256[]"
        },
        {
          "internalType": "string[]",
          "name": "",
          "type": "string[]"
        }
      ],
      "stateMutability": "view",
      "type": "function",
      "constant": true
    }
  ],
  "bytecode": "0x608060405234801561001057600080fd5b50611d32806100206000396000f3fe608060405234801561001057600080fd5b50600436106100a95760003560e01c80637cd74582116100715780637cd745821461015257806390175af11461016e578063ddba07a4146101a1578063e062acba146101c0578063e72888e3146101f0578063fca5e61e1461020f576100a9565b8063223883de146100ae57806331aad4df146100ca57806333ce4b1a146100e6578063641db207146101045780636687029914610122575b600080fd5b6100c860048036038101906100c391906111cd565b610242565b005b6100e460048036038101906100df919061124c565b6104c9565b005b6100ee61076f565b6040516100fb9190611288565b60405180910390f35b61010c610775565b6040516101199190611288565b60405180910390f35b61013c6004803603810190610137919061124c565b61077b565b604051610149919061145b565b60405180910390f35b61016c600480360381019061016791906111cd565b6108e4565b005b6101886004803603810190610183919061124c565b610ae2565b604051610198949392919061152f565b60405180910390f35b6101a9610bc7565b6040516101b7929190611736565b60405180910390f35b6101da60048036038101906101d59190611799565b610da6565b6040516101e79190611288565b60405180910390f35b6101f8610dbe565b6040516102069291906117c6565b60405180910390f35b6102296004803603810190610224919061124c565b610f0b565b6040516102399493929190611805565b60405180910390f35b6000600260003373ffffffffffffffffffffffffffffffffffffffff1673ffffffffffffffffffffffffffffffffffffffff16815260200190815260200160002054036102c4576040517f08c379a00000000000000000000000000000000000000000000000000000000081526004016102bb906118c3565b60405180910390fd5b6000600260003373ffffffffffffffffffffffffffffffffffffffff1673ffffffffffffffffffffffffffffffffffffffff1681526020019081526020016000205490506001600081548092919061031b90611912565b91905055506000600460006001548152602001908152602001600020905060015481600001819055508281600101908051906020019061035c929190610fd0565b5081816002018190555060008160030160006101000a81548160ff0219169083600381111561038e5761038d61131f565b5b02179055508060040160405180606001604052804281526020013373ffffffffffffffffffffffffffffffffffffffff168152602001600060038111156103d8576103d761131f565b5b81525090806001815401808255809150506001900390600052602060002090600202016000909190919091506000820151816000015560208201518160010160006101000a81548173ffffffffffffffffffffffffffffffffffffffff021916908373ffffffffffffffffffffffffffffffffffffffff16021790555060408201518160010160146101000a81548160ff021916908360038111156104805761047f61131f565b5b021790555050507f46671575ffdb4895b095fe2e5a0992a1e68e0ad7ad00bc31f9ecf1f3940b6d9d60015484846040516104bc9392919061195a565b60405180910390a1505050565b6000600460008381526020019081526020016000206000015403610522576040517f08c379a000000000000000000000000000000000000000000000000000000000815260040161051990611a0a565b60405180910390fd5b600060046000838152602001908152602001600020905060038081111561054c5761054b61131f565b5b8160030160009054906101000a900460ff1660038111156105705761056f61131f565b5b036105b0576040517f08c379a00000000000000000000000000000000000000000000000000000000081526004016105a790611a76565b60405180910390fd5b60018160030160009054906101000a900460ff1660038111156105d6576105d561131f565b5b6105e09190611a96565b60038111156105f2576105f161131f565b5b8160030160006101000a81548160ff021916908360038111156106185761061761131f565b5b02179055508060040160405180606001604052804281526020013373ffffffffffffffffffffffffffffffffffffffff1681526020018360030160009054906101000a900460ff1660038111156106725761067161131f565b5b81525090806001815401808255809150506001900390600052602060002090600202016000909190919091506000820151816000015560208201518160010160006101000a81548173ffffffffffffffffffffffffffffffffffffffff021916908373ffffffffffffffffffffffffffffffffffffffff16021790555060408201518160010160146101000a81548160ff0219169083600381111561071a5761071961131f565b5b021790555050507f0b45222ff3ffc7e69f10f93b8abbfe1ab485151501eca284dbfb0d64bc8020fc828260030160009054906101000a900460ff16604051610763929190611aec565b60405180910390a15050565b60005481565b60015481565b606060006004600084815260200190815260200160002060000154036107d6576040517f08c379a00000000000000000000000000000000000000000000000000000000081526004016107cd90611a0a565b60405180910390fd5b60046000838152602001908152602001600020600401805480602002602001604051908101604052809291908181526020016000905b828210156108d95783829060005260206000209060020201604051806060016040529081600082015481526020016001820160009054906101000a900473ffffffffffffffffffffffffffffffffffffffff1673ffffffffffffffffffffffffffffffffffffffff1673ffffffffffffffffffffffffffffffffffffffff1681526020016001820160149054906101000a900460ff1660038111156108b4576108b361131f565b5b60038111156108c6576108c561131f565b5b815250508152602001906001019061080c565b505050509050919050565b6000600260003373ffffffffffffffffffffffffffffffffffffffff1673ffffffffffffffffffffffffffffffffffffffff1681526020019081526020016000205414610966576040517f08c379a000000000000000000000000000000000000000000000000000000000815260040161095d90611b87565b60405180910390fd5b60008081548092919061097890611912565b9190505550600054600260003373ffffffffffffffffffffffffffffffffffffffff1673ffffffffffffffffffffffffffffffffffffffff16815260200190815260200160002081905550604051806080016040528060005481526020018281526020013373ffffffffffffffffffffffffffffffffffffffff168152602001600115158152506003600080548152602001908152602001600020600082015181600001556020820151816001019080519060200190610a39929190610fd0565b5060408201518160020160006101000a81548173ffffffffffffffffffffffffffffffffffffffff021916908373ffffffffffffffffffffffffffffffffffffffff16021790555060608201518160020160146101000a81548160ff0219169083151502179055509050507f0f5e6d4c0d86effd094adf0979a74712674b65e183149d9c86e96eea8c00c3f260005482604051610ad79291906117c6565b60405180910390a150565b6003602052806000526040600020600091509050806000015490806001018054610b0b90611bd6565b80601f0160208091040260200160405190810160405280929190818152602001828054610b3790611bd6565b8015610b845780601f10610b5957610100808354040283529160200191610b84565b820191906000526020600020905b815481529060010190602001808311610b6757829003601f168201915b5050505050908060020160009054906101000a900473ffffffffffffffffffffffffffffffffffffffff16908060020160149054906101000a900460ff16905084565b6060806000805467ffffffffffffffff811115610be757610be66110a2565b5b604051908082528060200260200182016040528015610c155781602001602082028036833780820191505090505b5090506000805467ffffffffffffffff811115610c3557610c346110a2565b5b604051908082528060200260200182016040528015610c6857816020015b6060815260200190600190039081610c535790505b5090506000600190505b6000548111610d9957600360008281526020019081526020016000206000015483600183610ca09190611c07565b81518110610cb157610cb0611c3b565b5b602002602001018181525050600360008281526020019081526020016000206001018054610cde90611bd6565b80601f0160208091040260200160405190810160405280929190818152602001828054610d0a90611bd6565b8015610d575780601f10610d2c57610100808354040283529160200191610d57565b820191906000526020600020905b815481529060010190602001808311610d3a57829003601f168201915b505050505082600183610d6a9190611c07565b81518110610d7b57610d7a611c3b565b5b60200260200101819052508080610d9190611912565b915050610c72565b5081819350935050509091565b60026020528060005260406000206000915090505481565b600060606000600260003373ffffffffffffffffffffffffffffffffffffffff1673ffffffffffffffffffffffffffffffffffffffff16815260200190815260200160002054905060008103610e49576040517f08c379a0000000000000000000000000000000000000000000000000000000008152600401610e4090611cdc565b60405180910390fd5b600360008281526020019081526020016000206000015460036000838152602001908152602001600020600101808054610e8290611bd6565b80601f0160208091040260200160405190810160405280929190818152602001828054610eae90611bd6565b8015610efb5780601f10610ed057610100808354040283529160200191610efb565b820191906000526020600020905b815481529060010190602001808311610ede57829003601f168201915b5050505050905092509250509091565b6004602052806000526040600020600091509050806000015490806001018054610f3490611bd6565b80601f0160208091040260200160405190810160405280929190818152602001828054610f6090611bd6565b8015610fad5780601f10610f8257610100808354040283529160200191610fad565b820191906000526020600020905b815481529060010190602001808311610f9057829003601f168201915b5050505050908060020154908060030160009054906101000a900460ff16905084565b828054610fdc90611bd6565b90600052602060002090601f016020900481019282610ffe5760008555611045565b82601f1061101757805160ff1916838001178555611045565b82800160010185558215611045579182015b82811115611044578251825591602001919060010190611029565b5b5090506110529190611056565b5090565b5b8082111561106f576000816000905550600101611057565b5090565b6000604051905090565b600080fd5b600080fd5b600080fd5b600080fd5b6000601f19601f8301169050919050565b7f4e487b7100000000000000000000000000000000000000000000000000000000600052604160045260246000fd5b6110da82611091565b810181811067ffffffffffffffff821117156110f9576110f86110a2565b5b80604052505050565b600061110c611073565b905061111882826110d1565b919050565b600067ffffffffffffffff821115611138576111376110a2565b5b61114182611091565b9050602081019050919050565b82818337600083830152505050565b600061117061116b8461111d565b611102565b90508281526020810184848401111561118c5761118b61108c565b5b61119784828561114e565b509392505050565b600082601f8301126111b4576111b3611087565b5b81356111c484826020860161115d565b91505092915050565b6000602082840312156111e3576111e261107d565b5b600082013567ffffffffffffffff81111561120157611200611082565b5b61120d8482850161119f565b91505092915050565b6000819050919050565b61122981611216565b811461123457600080fd5b50565b60008135905061124681611220565b92915050565b6000602082840312156112625761126161107d565b5b600061127084828501611237565b91505092915050565b61128281611216565b82525050565b600060208201905061129d6000830184611279565b92915050565b600081519050919050565b600082825260208201905092915050565b6000819050602082019050919050565b6112d881611216565b82525050565b600073ffffffffffffffffffffffffffffffffffffffff82169050919050565b6000611309826112de565b9050919050565b611319816112fe565b82525050565b7f4e487b7100000000000000000000000000000000000000000000000000000000600052602160045260246000fd5b6004811061135f5761135e61131f565b5b50565b60008190506113708261134e565b919050565b600061138082611362565b9050919050565b61139081611375565b82525050565b6060820160008201516113ac60008501826112cf565b5060208201516113bf6020850182611310565b5060408201516113d26040850182611387565b50505050565b60006113e48383611396565b60608301905092915050565b6000602082019050919050565b6000611408826112a3565b61141281856112ae565b935061141d836112bf565b8060005b8381101561144e57815161143588826113d8565b9750611440836113f0565b925050600181019050611421565b5085935050505092915050565b6000602082019050818103600083015261147581846113fd565b905092915050565b600081519050919050565b600082825260208201905092915050565b60005b838110156114b757808201518184015260208101905061149c565b838111156114c6576000848401525b50505050565b60006114d78261147d565b6114e18185611488565b93506114f1818560208601611499565b6114fa81611091565b840191505092915050565b61150e816112fe565b82525050565b60008115159050919050565b61152981611514565b82525050565b60006080820190506115446000830187611279565b818103602083015261155681866114cc565b90506115656040830185611505565b6115726060830184611520565b95945050505050565b600081519050919050565b600082825260208201905092915050565b6000819050602082019050919050565b60006115b383836112cf565b60208301905092915050565b6000602082019050919050565b60006115d78261157b565b6115e18185611586565b93506115ec83611597565b8060005b8381101561161d57815161160488826115a7565b975061160f836115bf565b9250506001810190506115f0565b5085935050505092915050565b600081519050919050565b600082825260208201905092915050565b6000819050602082019050919050565b600082825260208201905092915050565b60006116728261147d565b61167c8185611656565b935061168c818560208601611499565b61169581611091565b840191505092915050565b60006116ac8383611667565b905092915050565b6000602082019050919050565b60006116cc8261162a565b6116d68185611635565b9350836020820285016116e885611646565b8060005b85811015611724578484038952815161170585826116a0565b9450611710836116b4565b925060208a019950506001810190506116ec565b50829750879550505050505092915050565b6000604082019050818103600083015261175081856115cc565b9050818103602083015261176481846116c1565b90509392505050565b611776816112fe565b811461178157600080fd5b50565b6000813590506117938161176d565b92915050565b6000602082840312156117af576117ae61107d565b5b60006117bd84828501611784565b91505092915050565b60006040820190506117db6000830185611279565b81810360208301526117ed81846114cc565b90509392505050565b6117ff81611375565b82525050565b600060808201905061181a6000830187611279565b818103602083015261182c81866114cc565b905061183b6040830185611279565b61184860608301846117f6565b95945050505050565b7f4f6e6c792072656769737465726564206d616e7566616374757265727320636160008201527f6e20706572666f726d207468697320616374696f6e2e00000000000000000000602082015250565b60006118ad603683611488565b91506118b882611851565b604082019050919050565b600060208201905081810360008301526118dc816118a0565b9050919050565b7f4e487b7100000000000000000000000000000000000000000000000000000000600052601160045260246000fd5b600061191d82611216565b91507fffffffffffffffffffffffffffffffffffffffffffffffffffffffffffffffff820361194f5761194e6118e3565b5b600182019050919050565b600060608201905061196f6000830186611279565b818103602083015261198181856114cc565b90506119906040830184611279565b949350505050565b7f447275672077697468207468697320494420646f6573206e6f7420657869737460008201527f2e00000000000000000000000000000000000000000000000000000000000000602082015250565b60006119f4602183611488565b91506119ff82611998565b604082019050919050565b60006020820190508181036000830152611a23816119e7565b9050919050565b7f447275672068617320616c7265616479206265656e2064656c6976657265642e600082015250565b6000611a60602083611488565b9150611a6b82611a2a565b602082019050919050565b60006020820190508181036000830152611a8f81611a53565b9050919050565b6000611aa182611216565b9150611aac83611216565b9250827fffffffffffffffffffffffffffffffffffffffffffffffffffffffffffffffff03821115611ae157611ae06118e3565b5b828201905092915050565b6000604082019050611b016000830185611279565b611b0e60208301846117f6565b9392505050565b7f546869732077616c6c657420697320616c72656164792072656769737465726560008201527f642061732061206d616e7566616374757265722e000000000000000000000000602082015250565b6000611b71603483611488565b9150611b7c82611b15565b604082019050919050565b60006020820190508181036000830152611ba081611b64565b9050919050565b7f4e487b7100000000000000000000000000000000000000000000000000000000600052602260045260246000fd5b60006002820490506001821680611bee57607f821691505b602082108103611c0157611c00611ba7565b5b50919050565b6000611c1282611216565b9150611c1d83611216565b925082821015611c3057611c2f6118e3565b5b828203905092915050565b7f4e487b7100000000000000000000000000000000000000000000000000000000600052603260045260246000fd5b7f596f7520617265206e6f7420612072656769737465726564206d616e7566616360008201527f74757265722e0000000000000000000000000000000000000000000000000000602082015250565b6000611cc6602683611488565b9150611cd182611c6a565b604082019050919050565b60006020820190508181036000830152611cf581611cb9565b905091905056fea26469706673582212204c5daed1d593e961130f5fda464669b81818f80856080c866cf3ff512a3e956a64736f6c634300080d0033",
  "immutableReferences": {},
  "source": "// SPDX-License-Identifier: MIT\r\npragma solidity ^0.8.13;\r\n\r\n// A dedicated contract for tracking drugs from manufacturer to delivery.\r\ncontract DrugSupplyChain {\r\n\r\n    // ----------- STATE VARIABLES -----------\r\n    uint public manufacturerCounter;\r\n    uint public drugCounter;\r\n\r\n    struct Manufacturer {\r\n        uint id;\r\n        string name;\r\n        address walletAddress;\r\n        bool isRegistered;\r\n    }\r\n\r\n    struct Drug {\r\n        uint id;\r\n        string name;\r\n        uint manufacturerId;\r\n        State currentState;\r\n        Checkpoint[] history;\r\n    }\r\n\r\n    struct Checkpoint {\r\n        uint timestamp;\r\n        address scannedBy;\r\n        State stateAtScan;\r\n    }\r\n\r\n    enum State { Manufactured, InTransit, AtPharmacy, Delivered }\r\n\r\n    // Mappings for direct lookup\r\n    mapping(address => uint) public addressToManufacturerId;\r\n    mapping(uint => Manufacturer) public manufacturers;\r\n    mapping(uint => Drug) public drugs;\r\n\r\n    // ----------- MODIFIERS & EVENTS -----------\r\n    modifier onlyManufacturer() {\r\n        require(addressToManufacturerId[msg.sender] != 0, \"Only registered manufacturers can perform this action.\");\r\n        _;\r\n    }\r\n\r\n    event ManufacturerRegistered(uint id, string name);\r\n    event DrugAdded(uint drugId, string name, uint manufacturerId);\r\n    event DrugStateUpdated(uint drugId, State newState);\r\n\r\n    // ----------- CORE FUNCTIONS -----------\r\n    function registerManufacturer(string memory _name) public {\r\n        require(addressToManufacturerId[msg.sender] == 0, \"This wallet is already registered as a manufacturer.\");\r\n        manufacturerCounter++;\r\n        addressToManufacturerId[msg.sender] = manufacturerCounter;\r\n        manufacturers[manufacturerCounter] = Manufacturer(manufacturerCounter, _name, msg.sender, true);\r\n        emit ManufacturerRegistered(manufacturerCounter, _name);\r\n    }\r\n\r\n    function addDrug(string memory _name) public onlyManufacturer {\r\n        uint mfgId = addressToManufacturerId[msg.sender];\r\n        drugCounter++;\r\n        \r\n        Drug storage newDrug = drugs[drugCounter];\r\n        newDrug.id = drugCounter;\r\n        newDrug.name = _name;\r\n        newDrug.manufacturerId = mfgId;\r\n        newDrug.currentState = State.Manufactured;\r\n        \r\n        newDrug.history.push(Checkpoint({\r\n            timestamp: block.timestamp,\r\n            scannedBy: msg.sender,\r\n            stateAtScan: State.Manufactured\r\n        }));\r\n\r\n        emit DrugAdded(drugCounter, _name, mfgId);\r\n    }\r\n\r\n    function updateDrugState(uint _drugId) public {\r\n        require(drugs[_drugId].id != 0, \"Drug with this ID does not exist.\");\r\n        Drug storage drugToUpdate = drugs[_drugId];\r\n        require(drugToUpdate.currentState != State.Delivered, \"Drug has already been delivered.\");\r\n\r\n        drugToUpdate.currentState = State(uint(drugToUpdate.currentState) + 1);\r\n\r\n        drugToUpdate.history.push(Checkpoint({\r\n            timestamp: block.timestamp,\r\n            scannedBy: msg.sender,\r\n            stateAtScan: drugToUpdate.currentState\r\n        }));\r\n\r\n        emit DrugStateUpdated(_drugId, drugToUpdate.currentState);\r\n    }\r\n    \r\n    // ----------- GETTER FUNCTIONS -----------\r\n    function getMyManufacturerProfile() public view returns (uint, string memory) {\r\n        uint mfgId = addressToManufacturerId[msg.sender];\r\n        require(mfgId != 0, \"You are not a registered manufacturer.\");\r\n        return (manufacturers[mfgId].id, manufacturers[mfgId].name);\r\n    }\r\n\r\n    function getDrugHistory(uint _drugId) public view returns (Checkpoint[] memory) {\r\n        require(drugs[_drugId].id != 0, \"Drug with this ID does not exist.\");\r\n        return drugs[_drugId].history;\r\n    }\r\n\r\n    function getAllManufacturers() public view returns (uint[] memory, string[] memory) {\r\n        uint[] memory ids = new uint[](manufacturerCounter);\r\n        string[] memory names = new string[](manufacturerCounter);\r\n        for (uint i = 1; i <= manufacturerCounter; i++) {\r\n            ids[i-1] = manufacturers[i].id;\r\n            names[i-1] = manufacturers[i].name;\r\n        }\r\n        return (ids, names);\r\n    }\r\n}\r\n",
  "sourcePath": "C:\\Users\\Aishwarya.Sreejith\\HealthcareBlockchain\\contracts\\DrugSupplyChain.sol",
  "compiler": {
    "name": "solc",
    "version": "0.8.13+commit.abaa5c0e.Emscripten.clang"
  },
  "schemaVersion": "3.4.16",
  "updatedAt": "2025-10-03T21:18:38.210Z",
  "networkType": "ethereum",
  "devdoc": {
    "kind": "dev",
    "methods": {},
    "version": 1
  },
  "userdoc": {
    "kind": "user",
    "methods": {},
    "version": 1
  }
}