{
  "contractName": "HealthChain",
  "abi": [
    {
      "inputs": [
        {
          "internalType": "address",
          "name": "",
          "type": "address"
        }
      ],
      "name": "addressToDoctorId",
      "outputs": [
        {
          "internalType": "uint256",
          "name": "",
          "type": "uint256"
        }
      ],
      "stateMutability": "view",
      "type": "function",
      "constant": true
    },
    {
      "inputs": [
        {
          "internalType": "address",
          "name": "",
          "type": "address"
        }
      ],
      "name": "addressToPatientId",
      "outputs": [
        {
          "internalType": "uint256",
          "name": "",
          "type": "uint256"
        }
      ],
      "stateMutability": "view",
      "type": "function",
      "constant": true
    },
    {
      "inputs": [],
      "name": "doctorCounter",
      "outputs": [
        {
          "internalType": "uint256",
          "name": "",
          "type": "uint256"
        }
      ],
      "stateMutability": "view",
      "type": "function",
      "constant": true
    },
    {
      "inputs": [
        {
          "internalType": "uint256",
          "name": "",
          "type": "uint256"
        }
      ],
      "name": "doctors",
      "outputs": [
        {
          "internalType": "uint256",
          "name": "id",
          "type": "uint256"
        },
        {
          "internalType": "string",
          "name": "name",
          "type": "string"
        },
        {
          "internalType": "address",
          "name": "walletAddress",
          "type": "address"
        },
        {
          "internalType": "bool",
          "name": "isRegistered",
          "type": "bool"
        }
      ],
      "stateMutability": "view",
      "type": "function",
      "constant": true
    },
    {
      "inputs": [],
      "name": "patientCounter",
      "outputs": [
        {
          "internalType": "uint256",
          "name": "",
          "type": "uint256"
        }
      ],
      "stateMutability": "view",
      "type": "function",
      "constant": true
    },
    {
      "inputs": [
        {
          "internalType": "uint256",
          "name": "",
          "type": "uint256"
        }
      ],
      "name": "patients",
      "outputs": [
        {
          "internalType": "uint256",
          "name": "id",
          "type": "uint256"
        },
        {
          "internalType": "string",
          "name": "name",
          "type": "string"
        },
        {
          "internalType": "uint256",
          "name": "age",
          "type": "uint256"
        },
        {
          "internalType": "address",
          "name": "walletAddress",
          "type": "address"
        },
        {
          "internalType": "bool",
          "name": "isRegistered",
          "type": "bool"
        }
      ],
      "stateMutability": "view",
      "type": "function",
      "constant": true
    },
    {
      "inputs": [
        {
          "internalType": "string",
          "name": "_name",
          "type": "string"
        },
        {
          "internalType": "uint256",
          "name": "_age",
          "type": "uint256"
        }
      ],
      "name": "registerPatient",
      "outputs": [],
      "stateMutability": "nonpayable",
      "type": "function"
    },
    {
      "inputs": [
        {
          "internalType": "string",
          "name": "_recordName",
          "type": "string"
        },
        {
          "internalType": "string",
          "name": "_fileHash",
          "type": "string"
        },
        {
          "internalType": "string",
          "name": "_decryptionKey",
          "type": "string"
        }
      ],
      "name": "addRecord",
      "outputs": [],
      "stateMutability": "nonpayable",
      "type": "function"
    },
    {
      "inputs": [
        {
          "internalType": "uint256",
          "name": "_doctorId",
          "type": "uint256"
        }
      ],
      "name": "grantAccessById",
      "outputs": [],
      "stateMutability": "nonpayable",
      "type": "function"
    },
    {
      "inputs": [],
      "name": "getMyPatientProfile",
      "outputs": [
        {
          "internalType": "uint256",
          "name": "",
          "type": "uint256"
        },
        {
          "internalType": "string",
          "name": "",
          "type": "string"
        },
        {
          "internalType": "uint256",
          "name": "",
          "type": "uint256"
        },
        {
          "components": [
            {
              "internalType": "string",
              "name": "recordName",
              "type": "string"
            },
            {
              "internalType": "string",
              "name": "fileHash",
              "type": "string"
            },
            {
              "internalType": "string",
              "name": "decryptionKey",
              "type": "string"
            }
          ],
          "internalType": "struct HealthChain.MedicalRecord[]",
          "name": "",
          "type": "tuple[]"
        }
      ],
      "stateMutability": "view",
      "type": "function",
      "constant": true
    },
    {
      "inputs": [
        {
          "internalType": "string",
          "name": "_name",
          "type": "string"
        }
      ],
      "name": "registerDoctor",
      "outputs": [],
      "stateMutability": "nonpayable",
      "type": "function"
    },
    {
      "inputs": [
        {
          "internalType": "uint256",
          "name": "_patientId",
          "type": "uint256"
        }
      ],
      "name": "viewRecordsById",
      "outputs": [
        {
          "components": [
            {
              "internalType": "string",
              "name": "recordName",
              "type": "string"
            },
            {
              "internalType": "string",
              "name": "fileHash",
              "type": "string"
            },
            {
              "internalType": "string",
              "name": "decryptionKey",
              "type": "string"
            }
          ],
          "internalType": "struct HealthChain.MedicalRecord[]",
          "name": "",
          "type": "tuple[]"
        }
      ],
      "stateMutability": "view",
      "type": "function",
      "constant": true
    },
    {
      "inputs": [],
      "name": "getMyDoctorProfile",
      "outputs": [
        {
          "internalType": "uint256",
          "name": "",
          "type": "uint256"
        },
        {
          "internalType": "string",
          "name": "",
          "type": "string"
        }
      ],
      "stateMutability": "view",
      "type": "function",
      "constant": true
    },
    {
      "inputs": [],
      "name": "getAllDoctors",
      "outputs": [
        {
          "internalType": "uint256[]",
          "name": "",
          "type": "uint256[]"
        },
        {
          "internalType": "string[]",
          "name": "",
          "type": "string[]"
        }
      ],
      "stateMutability": "view",
      "type": "function",
      "constant": true
    },
    {
      "inputs": [],
      "name": "getAllPatients",
      "outputs": [
        {
          "internalType": "uint256[]",
          "name": "",
          "type": "uint256[]"
        },
        {
          "internalType": "string[]",
          "name": "",
          "type": "string[]"
        }
      ],
      "stateMutability": "view",
      "type": "function",
      "constant": true
    }
  ],
  "bytecode": "0x608060405234801561001057600080fd5b50612546806100206000396000f3fe608060405234801561001057600080fd5b50600436106100f55760003560e01c806393119a8311610097578063b1e35b4411610066578063b1e35b44146102a3578063e81e9134146102bf578063e8e0b05c146102de578063f0d95090146102fc576100f5565b806393119a83146101f157806396197d20146102255780639921b94b146102555780639c2b9ca114610273576100f5565b80633f723c62116100d35780633f723c62146101565780636efb1b8414610172578063833a5270146101a55780638f09ab5b146101d5576100f5565b806318a231a9146100fa5780632de304ed146101195780632f66f07814610135575b600080fd5b61010261031b565b604051610110929190611997565b60405180910390f35b610133600480360381019061012e9190611b43565b6104fa565b005b61013d610683565b60405161014d9493929190611d18565b60405180910390f35b610170600480360381019061016b9190611d6b565b6109e6565b005b61018c60048036038101906101879190611e12565b610b26565b60405161019c9493929190611e9b565b60405180910390f35b6101bf60048036038101906101ba9190611f13565b610c0b565b6040516101cc9190611f40565b60405180910390f35b6101ef60048036038101906101ea9190611f5b565b610c23565b005b61020b60048036038101906102069190611e12565b610de8565b60405161021c959493929190611fa4565b60405180910390f35b61023f600480360381019061023a9190611f13565b610ed3565b60405161024c9190611f40565b60405180910390f35b61025d610eeb565b60405161026a9190611f40565b60405180910390f35b61028d60048036038101906102889190611e12565b610ef1565b60405161029a9190611ffe565b60405180910390f35b6102bd60048036038101906102b89190611e12565b61127b565b005b6102c76113a9565b6040516102d5929190612020565b60405180910390f35b6102e66114ea565b6040516102f39190611f40565b60405180910390f35b6103046114f0565b604051610312929190611997565b60405180910390f35b6060806000805467ffffffffffffffff81111561033b5761033a6119ec565b5b6040519080825280602002602001820160405280156103695781602001602082028036833780820191505090505b5090506000805467ffffffffffffffff811115610389576103886119ec565b5b6040519080825280602002602001820160405280156103bc57816020015b60608152602001906001900390816103a75790505b5090506000600190505b60005481116104ed576004600082815260200190815260200160002060000154836001836103f4919061207f565b81518110610405576104046120b3565b5b60200260200101818152505060046000828152602001908152602001600020600101805461043290612111565b80601f016020809104026020016040519081016040528092919081815260200182805461045e90612111565b80156104ab5780601f10610480576101008083540402835291602001916104ab565b820191906000526020600020905b81548152906001019060200180831161048e57829003601f168201915b5050505050826001836104be919061207f565b815181106104cf576104ce6120b3565b5b602002602001018190525080806104e590612142565b9150506103c6565b5081819350935050509091565b6000600260003373ffffffffffffffffffffffffffffffffffffffff1673ffffffffffffffffffffffffffffffffffffffff168152602001908152602001600020541461057c576040517f08c379a0000000000000000000000000000000000000000000000000000000008152600401610573906121d6565b60405180910390fd5b60008081548092919061058e90612142565b9190505550600054600260003373ffffffffffffffffffffffffffffffffffffffff1673ffffffffffffffffffffffffffffffffffffffff168152602001908152602001600020819055506000600460008054815260200190815260200160002090506000548160000181905550828160010190805190602001906106149291906116d1565b50818160020181905550338160030160006101000a81548173ffffffffffffffffffffffffffffffffffffffff021916908373ffffffffffffffffffffffffffffffffffffffff16021790555060018160030160146101000a81548160ff021916908315150217905550505050565b60006060600060606000600260003373ffffffffffffffffffffffffffffffffffffffff1673ffffffffffffffffffffffffffffffffffffffff16815260200190815260200160002054905060008103610712576040517f08c379a000000000000000000000000000000000000000000000000000000000815260040161070990612242565b60405180910390fd5b600060046000838152602001908152602001600020905080600001548160010182600201548360040182805461074790612111565b80601f016020809104026020016040519081016040528092919081815260200182805461077390612111565b80156107c05780601f10610795576101008083540402835291602001916107c0565b820191906000526020600020905b8154815290600101906020018083116107a357829003601f168201915b5050505050925080805480602002602001604051908101604052809291908181526020016000905b828210156109d0578382906000526020600020906003020160405180606001604052908160008201805461081b90612111565b80601f016020809104026020016040519081016040528092919081815260200182805461084790612111565b80156108945780601f1061086957610100808354040283529160200191610894565b820191906000526020600020905b81548152906001019060200180831161087757829003601f168201915b505050505081526020016001820180546108ad90612111565b80601f01602080910402602001604051908101604052809291908181526020018280546108d990612111565b80156109265780601f106108fb57610100808354040283529160200191610926565b820191906000526020600020905b81548152906001019060200180831161090957829003601f168201915b5050505050815260200160028201805461093f90612111565b80601f016020809104026020016040519081016040528092919081815260200182805461096b90612111565b80156109b85780601f1061098d576101008083540402835291602001916109b8565b820191906000526020600020905b81548152906001019060200180831161099b57829003601f168201915b505050505081525050815260200190600101906107e8565b5050505090509550955095509550505090919293565b6000600260003373ffffffffffffffffffffffffffffffffffffffff1673ffffffffffffffffffffffffffffffffffffffff16815260200190815260200160002054905060008103610a6d576040517f08c379a0000000000000000000000000000000000000000000000000000000008152600401610a6490612242565b60405180910390fd5b6004600082815260200190815260200160002060040160405180606001604052808681526020018581526020018481525090806001815401808255809150506001900390600052602060002090600302016000909190919091506000820151816000019080519060200190610ae39291906116d1565b506020820151816001019080519060200190610b009291906116d1565b506040820151816002019080519060200190610b1d9291906116d1565b50505050505050565b6005602052806000526040600020600091509050806000015490806001018054610b4f90612111565b80601f0160208091040260200160405190810160405280929190818152602001828054610b7b90612111565b8015610bc85780601f10610b9d57610100808354040283529160200191610bc8565b820191906000526020600020905b815481529060010190602001808311610bab57829003601f168201915b5050505050908060020160009054906101000a900473ffffffffffffffffffffffffffffffffffffffff16908060020160149054906101000a900460ff16905084565b60036020528060005260406000206000915090505481565b6000600360003373ffffffffffffffffffffffffffffffffffffffff1673ffffffffffffffffffffffffffffffffffffffff1681526020019081526020016000205414610ca5576040517f08c379a0000000000000000000000000000000000000000000000000000000008152600401610c9c906122ae565b60405180910390fd5b60016000815480929190610cb890612142565b9190505550600154600360003373ffffffffffffffffffffffffffffffffffffffff1673ffffffffffffffffffffffffffffffffffffffff16815260200190815260200160002081905550604051806080016040528060015481526020018281526020013373ffffffffffffffffffffffffffffffffffffffff16815260200160011515815250600560006001548152602001908152602001600020600082015181600001556020820151816001019080519060200190610d7a9291906116d1565b5060408201518160020160006101000a81548173ffffffffffffffffffffffffffffffffffffffff021916908373ffffffffffffffffffffffffffffffffffffffff16021790555060608201518160020160146101000a81548160ff02191690831515021790555090505050565b6004602052806000526040600020600091509050806000015490806001018054610e1190612111565b80601f0160208091040260200160405190810160405280929190818152602001828054610e3d90612111565b8015610e8a5780601f10610e5f57610100808354040283529160200191610e8a565b820191906000526020600020905b815481529060010190602001808311610e6d57829003601f168201915b5050505050908060020154908060030160009054906101000a900473ffffffffffffffffffffffffffffffffffffffff16908060030160149054906101000a900460ff16905085565b60026020528060005260406000206000915090505481565b60015481565b60606000600360003373ffffffffffffffffffffffffffffffffffffffff1673ffffffffffffffffffffffffffffffffffffffff16815260200190815260200160002054905060008103610f7a576040517f08c379a0000000000000000000000000000000000000000000000000000000008152600401610f7190612340565b60405180910390fd5b6004600084815260200190815260200160002060030160149054906101000a900460ff16610fdd576040517f08c379a0000000000000000000000000000000000000000000000000000000008152600401610fd4906123ac565b60405180910390fd5b60046000848152602001908152602001600020600501600082815260200190815260200160002060009054906101000a900460ff16611051576040517f08c379a000000000000000000000000000000000000000000000000000000000815260040161104890612418565b60405180910390fd5b60046000848152602001908152602001600020600401805480602002602001604051908101604052809291908181526020016000905b8282101561126f57838290600052602060002090600302016040518060600160405290816000820180546110ba90612111565b80601f01602080910402602001604051908101604052809291908181526020018280546110e690612111565b80156111335780601f1061110857610100808354040283529160200191611133565b820191906000526020600020905b81548152906001019060200180831161111657829003601f168201915b5050505050815260200160018201805461114c90612111565b80601f016020809104026020016040519081016040528092919081815260200182805461117890612111565b80156111c55780601f1061119a576101008083540402835291602001916111c5565b820191906000526020600020905b8154815290600101906020018083116111a857829003601f168201915b505050505081526020016002820180546111de90612111565b80601f016020809104026020016040519081016040528092919081815260200182805461120a90612111565b80156112575780601f1061122c57610100808354040283529160200191611257565b820191906000526020600020905b81548152906001019060200180831161123a57829003601f168201915b50505050508152505081526020019060010190611087565b50505050915050919050565b6000600260003373ffffffffffffffffffffffffffffffffffffffff1673ffffffffffffffffffffffffffffffffffffffff16815260200190815260200160002054905060008103611302576040517f08c379a00000000000000000000000000000000000000000000000000000000081526004016112f990612242565b60405180910390fd5b6005600083815260200190815260200160002060020160149054906101000a900460ff16611365576040517f08c379a000000000000000000000000000000000000000000000000000000000815260040161135c90612484565b60405180910390fd5b600160046000838152602001908152602001600020600501600084815260200190815260200160002060006101000a81548160ff0219169083151502179055505050565b600060606000600360003373ffffffffffffffffffffffffffffffffffffffff1673ffffffffffffffffffffffffffffffffffffffff16815260200190815260200160002054905060008103611434576040517f08c379a000000000000000000000000000000000000000000000000000000000815260040161142b906124f0565b60405180910390fd5b600060056000838152602001908152602001600020905080600001548160010180805461146090612111565b80601f016020809104026020016040519081016040528092919081815260200182805461148c90612111565b80156114d95780601f106114ae576101008083540402835291602001916114d9565b820191906000526020600020905b8154815290600101906020018083116114bc57829003601f168201915b505050505090509350935050509091565b60005481565b606080600060015467ffffffffffffffff811115611511576115106119ec565b5b60405190808252806020026020018201604052801561153f5781602001602082028036833780820191505090505b509050600060015467ffffffffffffffff8111156115605761155f6119ec565b5b60405190808252806020026020018201604052801561159357816020015b606081526020019060019003908161157e5790505b5090506000600190505b60015481116116c4576005600082815260200190815260200160002060000154836001836115cb919061207f565b815181106115dc576115db6120b3565b5b60200260200101818152505060056000828152602001908152602001600020600101805461160990612111565b80601f016020809104026020016040519081016040528092919081815260200182805461163590612111565b80156116825780601f1061165757610100808354040283529160200191611682565b820191906000526020600020905b81548152906001019060200180831161166557829003601f168201915b505050505082600183611695919061207f565b815181106116a6576116a56120b3565b5b602002602001018190525080806116bc90612142565b91505061159d565b5081819350935050509091565b8280546116dd90612111565b90600052602060002090601f0160209004810192826116ff5760008555611746565b82601f1061171857805160ff1916838001178555611746565b82800160010185558215611746579182015b8281111561174557825182559160200191906001019061172a565b5b5090506117539190611757565b5090565b5b80821115611770576000816000905550600101611758565b5090565b600081519050919050565b600082825260208201905092915050565b6000819050602082019050919050565b6000819050919050565b6117b3816117a0565b82525050565b60006117c583836117aa565b60208301905092915050565b6000602082019050919050565b60006117e982611774565b6117f3818561177f565b93506117fe83611790565b8060005b8381101561182f57815161181688826117b9565b9750611821836117d1565b925050600181019050611802565b5085935050505092915050565b600081519050919050565b600082825260208201905092915050565b6000819050602082019050919050565b600081519050919050565b600082825260208201905092915050565b60005b838110156118a2578082015181840152602081019050611887565b838111156118b1576000848401525b50505050565b6000601f19601f8301169050919050565b60006118d382611868565b6118dd8185611873565b93506118ed818560208601611884565b6118f6816118b7565b840191505092915050565b600061190d83836118c8565b905092915050565b6000602082019050919050565b600061192d8261183c565b6119378185611847565b93508360208202850161194985611858565b8060005b8581101561198557848403895281516119668582611901565b945061197183611915565b925060208a0199505060018101905061194d565b50829750879550505050505092915050565b600060408201905081810360008301526119b181856117de565b905081810360208301526119c58184611922565b90509392505050565b6000604051905090565b600080fd5b600080fd5b600080fd5b600080fd5b7f4e487b7100000000000000000000000000000000000000000000000000000000600052604160045260246000fd5b611a24826118b7565b810181811067ffffffffffffffff82111715611a4357611a426119ec565b5b80604052505050565b6000611a566119ce565b9050611a628282611a1b565b919050565b600067ffffffffffffffff821115611a8257611a816119ec565b5b611a8b826118b7565b9050602081019050919050565b82818337600083830152505050565b6000611aba611ab584611a67565b611a4c565b905082815260208101848484011115611ad657611ad56119e7565b5b611ae1848285611a98565b509392505050565b600082601f830112611afe57611afd6119e2565b5b8135611b0e848260208601611aa7565b91505092915050565b611b20816117a0565b8114611b2b57600080fd5b50565b600081359050611b3d81611b17565b92915050565b60008060408385031215611b5a57611b596119d8565b5b600083013567ffffffffffffffff811115611b7857611b776119dd565b5b611b8485828601611ae9565b9250506020611b9585828601611b2e565b9150509250929050565b611ba8816117a0565b82525050565b600082825260208201905092915050565b6000611bca82611868565b611bd48185611bae565b9350611be4818560208601611884565b611bed816118b7565b840191505092915050565b600081519050919050565b600082825260208201905092915050565b6000819050602082019050919050565b60006060830160008301518482036000860152611c4182826118c8565b91505060208301518482036020860152611c5b82826118c8565b91505060408301518482036040860152611c7582826118c8565b9150508091505092915050565b6000611c8e8383611c24565b905092915050565b6000602082019050919050565b6000611cae82611bf8565b611cb88185611c03565b935083602082028501611cca85611c14565b8060005b85811015611d065784840389528151611ce78582611c82565b9450611cf283611c96565b925060208a01995050600181019050611cce565b50829750879550505050505092915050565b6000608082019050611d2d6000830187611b9f565b8181036020830152611d3f8186611bbf565b9050611d4e6040830185611b9f565b8181036060830152611d608184611ca3565b905095945050505050565b600080600060608486031215611d8457611d836119d8565b5b600084013567ffffffffffffffff811115611da257611da16119dd565b5b611dae86828701611ae9565b935050602084013567ffffffffffffffff811115611dcf57611dce6119dd565b5b611ddb86828701611ae9565b925050604084013567ffffffffffffffff811115611dfc57611dfb6119dd565b5b611e0886828701611ae9565b9150509250925092565b600060208284031215611e2857611e276119d8565b5b6000611e3684828501611b2e565b91505092915050565b600073ffffffffffffffffffffffffffffffffffffffff82169050919050565b6000611e6a82611e3f565b9050919050565b611e7a81611e5f565b82525050565b60008115159050919050565b611e9581611e80565b82525050565b6000608082019050611eb06000830187611b9f565b8181036020830152611ec28186611bbf565b9050611ed16040830185611e71565b611ede6060830184611e8c565b95945050505050565b611ef081611e5f565b8114611efb57600080fd5b50565b600081359050611f0d81611ee7565b92915050565b600060208284031215611f2957611f286119d8565b5b6000611f3784828501611efe565b91505092915050565b6000602082019050611f556000830184611b9f565b92915050565b600060208284031215611f7157611f706119d8565b5b600082013567ffffffffffffffff811115611f8f57611f8e6119dd565b5b611f9b84828501611ae9565b91505092915050565b600060a082019050611fb96000830188611b9f565b8181036020830152611fcb8187611bbf565b9050611fda6040830186611b9f565b611fe76060830185611e71565b611ff46080830184611e8c565b9695505050505050565b600060208201905081810360008301526120188184611ca3565b905092915050565b60006040820190506120356000830185611b9f565b81810360208301526120478184611bbf565b90509392505050565b7f4e487b7100000000000000000000000000000000000000000000000000000000600052601160045260246000fd5b600061208a826117a0565b9150612095836117a0565b9250828210156120a8576120a7612050565b5b828203905092915050565b7f4e487b7100000000000000000000000000000000000000000000000000000000600052603260045260246000fd5b7f4e487b7100000000000000000000000000000000000000000000000000000000600052602260045260246000fd5b6000600282049050600182168061212957607f821691505b60208210810361213c5761213b6120e2565b5b50919050565b600061214d826117a0565b91507fffffffffffffffffffffffffffffffffffffffffffffffffffffffffffffffff820361217f5761217e612050565b5b600182019050919050565b7f50617469656e7420616c726561647920726567697374657265642e0000000000600082015250565b60006121c0601b83611bae565b91506121cb8261218a565b602082019050919050565b600060208201905081810360008301526121ef816121b3565b9050919050565b7f50617469656e74206e6f7420726567697374657265642e000000000000000000600082015250565b600061222c601783611bae565b9150612237826121f6565b602082019050919050565b6000602082019050818103600083015261225b8161221f565b9050919050565b7f446f63746f7220616c726561647920726567697374657265642e000000000000600082015250565b6000612298601a83611bae565b91506122a382612262565b602082019050919050565b600060208201905081810360008301526122c78161228b565b9050919050565b7f4f6e6c79207265676973746572656420646f63746f72732063616e207669657760008201527f207265636f7264732e0000000000000000000000000000000000000000000000602082015250565b600061232a602983611bae565b9150612335826122ce565b604082019050919050565b600060208201905081810360008301526123598161231d565b9050919050565b7f50617469656e7420494420646f6573206e6f742065786973742e000000000000600082015250565b6000612396601a83611bae565b91506123a182612360565b602082019050919050565b600060208201905081810360008301526123c581612389565b9050919050565b7f4163636573732064656e6965642e000000000000000000000000000000000000600082015250565b6000612402600e83611bae565b915061240d826123cc565b602082019050919050565b60006020820190508181036000830152612431816123f5565b9050919050565b7f446f63746f7220494420646f6573206e6f742065786973742e00000000000000600082015250565b600061246e601983611bae565b915061247982612438565b602082019050919050565b6000602082019050818103600083015261249d81612461565b9050919050565b7f446f63746f72206e6f7420726567697374657265642e00000000000000000000600082015250565b60006124da601683611bae565b91506124e5826124a4565b602082019050919050565b60006020820190508181036000830152612509816124cd565b905091905056fea2646970667358221220393a281552b7c8707e17ebfa2c0f34a2f6ab7b210938d93f688474242fd7601164736f6c634300080d0033",
  "immutableReferences": {},
  "source": "// SPDX-License-Identifier: MIT\r\npragma solidity ^0.8.13;\r\n\r\ncontract HealthChain {\r\n    uint public patientCounter;\r\n    uint public doctorCounter;\r\n\r\n    struct MedicalRecord {\r\n        string recordName;\r\n        string fileHash;\r\n        string decryptionKey;\r\n    }\r\n\r\n    struct Patient {\r\n        uint id;\r\n        string name;\r\n        uint age;\r\n        address walletAddress;\r\n        bool isRegistered;\r\n        MedicalRecord[] medicalRecords;\r\n        mapping(uint => bool) accessGranted; // doctorId => hasAccess\r\n    }\r\n\r\n    struct Doctor {\r\n        uint id;\r\n        string name;\r\n        address walletAddress;\r\n        bool isRegistered;\r\n    }\r\n\r\n    mapping(address => uint) public addressToPatientId;\r\n    mapping(address => uint) public addressToDoctorId;\r\n    mapping(uint => Patient) public patients;\r\n    mapping(uint => Doctor) public doctors;\r\n\r\n    function registerPatient(string memory _name, uint _age) public {\r\n        require(addressToPatientId[msg.sender] == 0, \"Patient already registered.\");\r\n        patientCounter++;\r\n        addressToPatientId[msg.sender] = patientCounter;\r\n\r\n        Patient storage newPatient = patients[patientCounter];\r\n        newPatient.id = patientCounter;\r\n        newPatient.name = _name;\r\n        newPatient.age = _age;\r\n        newPatient.walletAddress = msg.sender;\r\n        newPatient.isRegistered = true;\r\n    }\r\n\r\n    function addRecord(string memory _recordName, string memory _fileHash, string memory _decryptionKey) public {\r\n        uint patientId = addressToPatientId[msg.sender];\r\n        require(patientId != 0, \"Patient not registered.\");\r\n        patients[patientId].medicalRecords.push(MedicalRecord(_recordName, _fileHash, _decryptionKey));\r\n    }\r\n\r\n    function grantAccessById(uint _doctorId) public {\r\n        uint patientId = addressToPatientId[msg.sender];\r\n        require(patientId != 0, \"Patient not registered.\");\r\n        require(doctors[_doctorId].isRegistered, \"Doctor ID does not exist.\");\r\n        patients[patientId].accessGranted[_doctorId] = true;\r\n    }\r\n\r\n    function getMyPatientProfile() public view returns (uint, string memory, uint, MedicalRecord[] memory) {\r\n        uint patientId = addressToPatientId[msg.sender];\r\n        require(patientId != 0, \"Patient not registered.\");\r\n        Patient storage p = patients[patientId];\r\n        return (p.id, p.name, p.age, p.medicalRecords);\r\n    }\r\n\r\n    function registerDoctor(string memory _name) public {\r\n        require(addressToDoctorId[msg.sender] == 0, \"Doctor already registered.\");\r\n        doctorCounter++;\r\n        addressToDoctorId[msg.sender] = doctorCounter;\r\n        doctors[doctorCounter] = Doctor(doctorCounter, _name, msg.sender, true);\r\n    }\r\n\r\n    function viewRecordsById(uint _patientId) public view returns (MedicalRecord[] memory) {\r\n        uint doctorId = addressToDoctorId[msg.sender];\r\n        require(doctorId != 0, \"Only registered doctors can view records.\");\r\n        require(patients[_patientId].isRegistered, \"Patient ID does not exist.\");\r\n        require(patients[_patientId].accessGranted[doctorId], \"Access denied.\");\r\n        return patients[_patientId].medicalRecords;\r\n    }\r\n    \r\n    function getMyDoctorProfile() public view returns (uint, string memory) {\r\n        uint doctorId = addressToDoctorId[msg.sender];\r\n        require(doctorId != 0, \"Doctor not registered.\");\r\n        Doctor storage d = doctors[doctorId];\r\n        return (d.id, d.name);\r\n    }\r\n\r\n    function getAllDoctors() public view returns (uint[] memory, string[] memory) {\r\n        uint[] memory ids = new uint[](doctorCounter);\r\n        string[] memory names = new string[](doctorCounter);\r\n        for (uint i = 1; i <= doctorCounter; i++) {\r\n            ids[i-1] = doctors[i].id;\r\n            names[i-1] = doctors[i].name;\r\n        }\r\n        return (ids, names);\r\n    }\r\n\r\n    function getAllPatients() public view returns (uint[] memory, string[] memory) {\r\n        uint[] memory ids = new uint[](patientCounter);\r\n        string[] memory names = new string[](patientCounter);\r\n        for (uint i = 1; i <= patientCounter; i++) {\r\n            ids[i-1] = patients[i].id;\r\n            names[i-1] = patients[i].name;\r\n        }\r\n        return (ids, names);\r\n    }\r\n}",
  "sourcePath": "C:\\Users\\Aishwarya.Sreejith\\HealthcareBlockchain\\contracts\\HealthChain.sol",
  "compiler": {
    "name": "solc",
    "version": "0.8.13+commit.abaa5c0e.Emscripten.clang"
  },
  "schemaVersion": "3.4.16",
  "updatedAt": "2025-11-13T19:12:32.796Z",
  "networkType": "ethereum",
  "devdoc": {
    "kind": "dev",
    "methods": {},
    "version": 1
  },
  "userdoc": {
    "kind": "user",
    "methods": {},
    "version": 1
  }
}