{
  "contractName": "HealthChain",
  "abi": [
    {
      "inputs": [
        {
          "internalType": "address",
          "name": "",
          "type": "address"
        }
      ],
      "name": "addressToDoctorId",
      "outputs": [
        {
          "internalType": "uint256",
          "name": "",
          "type": "uint256"
        }
      ],
      "stateMutability": "view",
      "type": "function",
      "constant": true
    },
    {
      "inputs": [
        {
          "internalType": "address",
          "name": "",
          "type": "address"
        }
      ],
      "name": "addressToPatientId",
      "outputs": [
        {
          "internalType": "uint256",
          "name": "",
          "type": "uint256"
        }
      ],
      "stateMutability": "view",
      "type": "function",
      "constant": true
    },
    {
      "inputs": [],
      "name": "doctorCounter",
      "outputs": [
        {
          "internalType": "uint256",
          "name": "",
          "type": "uint256"
        }
      ],
      "stateMutability": "view",
      "type": "function",
      "constant": true
    },
    {
      "inputs": [
        {
          "internalType": "uint256",
          "name": "",
          "type": "uint256"
        }
      ],
      "name": "doctors",
      "outputs": [
        {
          "internalType": "uint256",
          "name": "id",
          "type": "uint256"
        },
        {
          "internalType": "string",
          "name": "name",
          "type": "string"
        },
        {
          "internalType": "address",
          "name": "walletAddress",
          "type": "address"
        },
        {
          "internalType": "bool",
          "name": "isRegistered",
          "type": "bool"
        }
      ],
      "stateMutability": "view",
      "type": "function",
      "constant": true
    },
    {
      "inputs": [],
      "name": "patientCounter",
      "outputs": [
        {
          "internalType": "uint256",
          "name": "",
          "type": "uint256"
        }
      ],
      "stateMutability": "view",
      "type": "function",
      "constant": true
    },
    {
      "inputs": [
        {
          "internalType": "uint256",
          "name": "",
          "type": "uint256"
        }
      ],
      "name": "patients",
      "outputs": [
        {
          "internalType": "uint256",
          "name": "id",
          "type": "uint256"
        },
        {
          "internalType": "string",
          "name": "name",
          "type": "string"
        },
        {
          "internalType": "uint256",
          "name": "age",
          "type": "uint256"
        },
        {
          "internalType": "address",
          "name": "walletAddress",
          "type": "address"
        },
        {
          "internalType": "bool",
          "name": "isRegistered",
          "type": "bool"
        }
      ],
      "stateMutability": "view",
      "type": "function",
      "constant": true
    },
    {
      "inputs": [
        {
          "internalType": "string",
          "name": "_name",
          "type": "string"
        },
        {
          "internalType": "uint256",
          "name": "_age",
          "type": "uint256"
        }
      ],
      "name": "registerPatient",
      "outputs": [],
      "stateMutability": "nonpayable",
      "type": "function"
    },
    {
      "inputs": [
        {
          "internalType": "string",
          "name": "_recordHash",
          "type": "string"
        }
      ],
      "name": "addRecord",
      "outputs": [],
      "stateMutability": "nonpayable",
      "type": "function"
    },
    {
      "inputs": [
        {
          "internalType": "uint256",
          "name": "_doctorId",
          "type": "uint256"
        }
      ],
      "name": "grantAccessById",
      "outputs": [],
      "stateMutability": "nonpayable",
      "type": "function"
    },
    {
      "inputs": [],
      "name": "getMyPatientProfile",
      "outputs": [
        {
          "internalType": "uint256",
          "name": "",
          "type": "uint256"
        },
        {
          "internalType": "string",
          "name": "",
          "type": "string"
        },
        {
          "internalType": "uint256",
          "name": "",
          "type": "uint256"
        },
        {
          "internalType": "string[]",
          "name": "",
          "type": "string[]"
        }
      ],
      "stateMutability": "view",
      "type": "function",
      "constant": true
    },
    {
      "inputs": [
        {
          "internalType": "string",
          "name": "_name",
          "type": "string"
        }
      ],
      "name": "registerDoctor",
      "outputs": [],
      "stateMutability": "nonpayable",
      "type": "function"
    },
    {
      "inputs": [
        {
          "internalType": "uint256",
          "name": "_patientId",
          "type": "uint256"
        }
      ],
      "name": "viewRecordsById",
      "outputs": [
        {
          "internalType": "string[]",
          "name": "",
          "type": "string[]"
        }
      ],
      "stateMutability": "view",
      "type": "function",
      "constant": true
    },
    {
      "inputs": [],
      "name": "getMyDoctorProfile",
      "outputs": [
        {
          "internalType": "uint256",
          "name": "",
          "type": "uint256"
        },
        {
          "internalType": "string",
          "name": "",
          "type": "string"
        }
      ],
      "stateMutability": "view",
      "type": "function",
      "constant": true
    },
    {
      "inputs": [],
      "name": "getAllDoctors",
      "outputs": [
        {
          "internalType": "uint256[]",
          "name": "",
          "type": "uint256[]"
        },
        {
          "internalType": "string[]",
          "name": "",
          "type": "string[]"
        }
      ],
      "stateMutability": "view",
      "type": "function",
      "constant": true
    },
    {
      "inputs": [],
      "name": "getAllPatients",
      "outputs": [
        {
          "internalType": "uint256[]",
          "name": "",
          "type": "uint256[]"
        },
        {
          "internalType": "string[]",
          "name": "",
          "type": "string[]"
        }
      ],
      "stateMutability": "view",
      "type": "function",
      "constant": true
    }
  ],
  "bytecode": "0x608060405234801561001057600080fd5b5061225e806100206000396000f3fe608060405234801561001057600080fd5b50600436106100f55760003560e01c806396197d2011610097578063d81aa8c411610066578063d81aa8c4146102a3578063e81e9134146102bf578063e8e0b05c146102de578063f0d95090146102fc576100f5565b806396197d20146102095780639921b94b146102395780639c2b9ca114610257578063b1e35b4414610287576100f5565b80636efb1b84116100d35780636efb1b8414610156578063833a5270146101895780638f09ab5b146101b957806393119a83146101d5576100f5565b806318a231a9146100fa5780632de304ed146101195780632f66f07814610135575b600080fd5b61010261031b565b6040516101109291906116ba565b60405180910390f35b610133600480360381019061012e9190611866565b6104fa565b005b61013d610683565b60405161014d949392919061191b565b60405180910390f35b610170600480360381019061016b919061196e565b6108aa565b60405161018094939291906119f7565b60405180910390f35b6101a3600480360381019061019e9190611a6f565b61098f565b6040516101b09190611a9c565b60405180910390f35b6101d360048036038101906101ce9190611ab7565b6109a7565b005b6101ef60048036038101906101ea919061196e565b610b6c565b604051610200959493929190611b00565b60405180910390f35b610223600480360381019061021e9190611a6f565b610c57565b6040516102309190611a9c565b60405180910390f35b610241610c6f565b60405161024e9190611a9c565b60405180910390f35b610271600480360381019061026c919061196e565b610c75565b60405161027e9190611b5a565b60405180910390f35b6102a1600480360381019061029c919061196e565b610ec3565b005b6102bd60048036038101906102b89190611ab7565b610ff1565b005b6102c76110cc565b6040516102d5929190611b7c565b60405180910390f35b6102e661120d565b6040516102f39190611a9c565b60405180910390f35b610304611213565b6040516103129291906116ba565b60405180910390f35b6060806000805467ffffffffffffffff81111561033b5761033a61170f565b5b6040519080825280602002602001820160405280156103695781602001602082028036833780820191505090505b5090506000805467ffffffffffffffff8111156103895761038861170f565b5b6040519080825280602002602001820160405280156103bc57816020015b60608152602001906001900390816103a75790505b5090506000600190505b60005481116104ed576004600082815260200190815260200160002060000154836001836103f49190611bdb565b8151811061040557610404611c0f565b5b60200260200101818152505060046000828152602001908152602001600020600101805461043290611c6d565b80601f016020809104026020016040519081016040528092919081815260200182805461045e90611c6d565b80156104ab5780601f10610480576101008083540402835291602001916104ab565b820191906000526020600020905b81548152906001019060200180831161048e57829003601f168201915b5050505050826001836104be9190611bdb565b815181106104cf576104ce611c0f565b5b602002602001018190525080806104e590611c9e565b9150506103c6565b5081819350935050509091565b6000600260003373ffffffffffffffffffffffffffffffffffffffff1673ffffffffffffffffffffffffffffffffffffffff168152602001908152602001600020541461057c576040517f08c379a000000000000000000000000000000000000000000000000000000000815260040161057390611d58565b60405180910390fd5b60008081548092919061058e90611c9e565b9190505550600054600260003373ffffffffffffffffffffffffffffffffffffffff1673ffffffffffffffffffffffffffffffffffffffff168152602001908152602001600020819055506000600460008054815260200190815260200160002090506000548160000181905550828160010190805190602001906106149291906113f4565b50818160020181905550338160030160006101000a81548173ffffffffffffffffffffffffffffffffffffffff021916908373ffffffffffffffffffffffffffffffffffffffff16021790555060018160030160146101000a81548160ff021916908315150217905550505050565b60006060600060606000600260003373ffffffffffffffffffffffffffffffffffffffff1673ffffffffffffffffffffffffffffffffffffffff16815260200190815260200160002054905060008103610712576040517f08c379a000000000000000000000000000000000000000000000000000000000815260040161070990611dc4565b60405180910390fd5b600060046000838152602001908152602001600020905080600001548160010182600201548360040182805461074790611c6d565b80601f016020809104026020016040519081016040528092919081815260200182805461077390611c6d565b80156107c05780601f10610795576101008083540402835291602001916107c0565b820191906000526020600020905b8154815290600101906020018083116107a357829003601f168201915b5050505050925080805480602002602001604051908101604052809291908181526020016000905b8282101561089457838290600052602060002001805461080790611c6d565b80601f016020809104026020016040519081016040528092919081815260200182805461083390611c6d565b80156108805780601f1061085557610100808354040283529160200191610880565b820191906000526020600020905b81548152906001019060200180831161086357829003601f168201915b5050505050815260200190600101906107e8565b5050505090509550955095509550505090919293565b60056020528060005260406000206000915090508060000154908060010180546108d390611c6d565b80601f01602080910402602001604051908101604052809291908181526020018280546108ff90611c6d565b801561094c5780601f106109215761010080835404028352916020019161094c565b820191906000526020600020905b81548152906001019060200180831161092f57829003601f168201915b5050505050908060020160009054906101000a900473ffffffffffffffffffffffffffffffffffffffff16908060020160149054906101000a900460ff16905084565b60036020528060005260406000206000915090505481565b6000600360003373ffffffffffffffffffffffffffffffffffffffff1673ffffffffffffffffffffffffffffffffffffffff1681526020019081526020016000205414610a29576040517f08c379a0000000000000000000000000000000000000000000000000000000008152600401610a2090611e56565b60405180910390fd5b60016000815480929190610a3c90611c9e565b9190505550600154600360003373ffffffffffffffffffffffffffffffffffffffff1673ffffffffffffffffffffffffffffffffffffffff16815260200190815260200160002081905550604051806080016040528060015481526020018281526020013373ffffffffffffffffffffffffffffffffffffffff16815260200160011515815250600560006001548152602001908152602001600020600082015181600001556020820151816001019080519060200190610afe9291906113f4565b5060408201518160020160006101000a81548173ffffffffffffffffffffffffffffffffffffffff021916908373ffffffffffffffffffffffffffffffffffffffff16021790555060608201518160020160146101000a81548160ff02191690831515021790555090505050565b6004602052806000526040600020600091509050806000015490806001018054610b9590611c6d565b80601f0160208091040260200160405190810160405280929190818152602001828054610bc190611c6d565b8015610c0e5780601f10610be357610100808354040283529160200191610c0e565b820191906000526020600020905b815481529060010190602001808311610bf157829003601f168201915b5050505050908060020154908060030160009054906101000a900473ffffffffffffffffffffffffffffffffffffffff16908060030160149054906101000a900460ff16905085565b60026020528060005260406000206000915090505481565b60015481565b60606000600360003373ffffffffffffffffffffffffffffffffffffffff1673ffffffffffffffffffffffffffffffffffffffff16815260200190815260200160002054905060008103610cfe576040517f08c379a0000000000000000000000000000000000000000000000000000000008152600401610cf590611ee8565b60405180910390fd5b6004600084815260200190815260200160002060030160149054906101000a900460ff16610d61576040517f08c379a0000000000000000000000000000000000000000000000000000000008152600401610d5890611f54565b60405180910390fd5b60046000848152602001908152602001600020600501600082815260200190815260200160002060009054906101000a900460ff16610dd5576040517f08c379a0000000000000000000000000000000000000000000000000000000008152600401610dcc9061200c565b60405180910390fd5b60046000848152602001908152602001600020600401805480602002602001604051908101604052809291908181526020016000905b82821015610eb7578382906000526020600020018054610e2a90611c6d565b80601f0160208091040260200160405190810160405280929190818152602001828054610e5690611c6d565b8015610ea35780601f10610e7857610100808354040283529160200191610ea3565b820191906000526020600020905b815481529060010190602001808311610e8657829003601f168201915b505050505081526020019060010190610e0b565b50505050915050919050565b6000600260003373ffffffffffffffffffffffffffffffffffffffff1673ffffffffffffffffffffffffffffffffffffffff16815260200190815260200160002054905060008103610f4a576040517f08c379a0000000000000000000000000000000000000000000000000000000008152600401610f419061209e565b60405180910390fd5b6005600083815260200190815260200160002060020160149054906101000a900460ff16610fad576040517f08c379a0000000000000000000000000000000000000000000000000000000008152600401610fa49061210a565b60405180910390fd5b600160046000838152602001908152602001600020600501600084815260200190815260200160002060006101000a81548160ff0219169083151502179055505050565b6000600260003373ffffffffffffffffffffffffffffffffffffffff1673ffffffffffffffffffffffffffffffffffffffff16815260200190815260200160002054905060008103611078576040517f08c379a000000000000000000000000000000000000000000000000000000000815260040161106f9061219c565b60405180910390fd5b60046000828152602001908152602001600020600401829080600181540180825580915050600190039060005260206000200160009091909190915090805190602001906110c79291906113f4565b505050565b600060606000600360003373ffffffffffffffffffffffffffffffffffffffff1673ffffffffffffffffffffffffffffffffffffffff16815260200190815260200160002054905060008103611157576040517f08c379a000000000000000000000000000000000000000000000000000000000815260040161114e90612208565b60405180910390fd5b600060056000838152602001908152602001600020905080600001548160010180805461118390611c6d565b80601f01602080910402602001604051908101604052809291908181526020018280546111af90611c6d565b80156111fc5780601f106111d1576101008083540402835291602001916111fc565b820191906000526020600020905b8154815290600101906020018083116111df57829003601f168201915b505050505090509350935050509091565b60005481565b606080600060015467ffffffffffffffff8111156112345761123361170f565b5b6040519080825280602002602001820160405280156112625781602001602082028036833780820191505090505b509050600060015467ffffffffffffffff8111156112835761128261170f565b5b6040519080825280602002602001820160405280156112b657816020015b60608152602001906001900390816112a15790505b5090506000600190505b60015481116113e7576005600082815260200190815260200160002060000154836001836112ee9190611bdb565b815181106112ff576112fe611c0f565b5b60200260200101818152505060056000828152602001908152602001600020600101805461132c90611c6d565b80601f016020809104026020016040519081016040528092919081815260200182805461135890611c6d565b80156113a55780601f1061137a576101008083540402835291602001916113a5565b820191906000526020600020905b81548152906001019060200180831161138857829003601f168201915b5050505050826001836113b89190611bdb565b815181106113c9576113c8611c0f565b5b602002602001018190525080806113df90611c9e565b9150506112c0565b5081819350935050509091565b82805461140090611c6d565b90600052602060002090601f0160209004810192826114225760008555611469565b82601f1061143b57805160ff1916838001178555611469565b82800160010185558215611469579182015b8281111561146857825182559160200191906001019061144d565b5b509050611476919061147a565b5090565b5b8082111561149357600081600090555060010161147b565b5090565b600081519050919050565b600082825260208201905092915050565b6000819050602082019050919050565b6000819050919050565b6114d6816114c3565b82525050565b60006114e883836114cd565b60208301905092915050565b6000602082019050919050565b600061150c82611497565b61151681856114a2565b9350611521836114b3565b8060005b8381101561155257815161153988826114dc565b9750611544836114f4565b925050600181019050611525565b5085935050505092915050565b600081519050919050565b600082825260208201905092915050565b6000819050602082019050919050565b600081519050919050565b600082825260208201905092915050565b60005b838110156115c55780820151818401526020810190506115aa565b838111156115d4576000848401525b50505050565b6000601f19601f8301169050919050565b60006115f68261158b565b6116008185611596565b93506116108185602086016115a7565b611619816115da565b840191505092915050565b600061163083836115eb565b905092915050565b6000602082019050919050565b60006116508261155f565b61165a818561156a565b93508360208202850161166c8561157b565b8060005b858110156116a857848403895281516116898582611624565b945061169483611638565b925060208a01995050600181019050611670565b50829750879550505050505092915050565b600060408201905081810360008301526116d48185611501565b905081810360208301526116e88184611645565b90509392505050565b6000604051905090565b600080fd5b600080fd5b600080fd5b600080fd5b7f4e487b7100000000000000000000000000000000000000000000000000000000600052604160045260246000fd5b611747826115da565b810181811067ffffffffffffffff821117156117665761176561170f565b5b80604052505050565b60006117796116f1565b9050611785828261173e565b919050565b600067ffffffffffffffff8211156117a5576117a461170f565b5b6117ae826115da565b9050602081019050919050565b82818337600083830152505050565b60006117dd6117d88461178a565b61176f565b9050828152602081018484840111156117f9576117f861170a565b5b6118048482856117bb565b509392505050565b600082601f83011261182157611820611705565b5b81356118318482602086016117ca565b91505092915050565b611843816114c3565b811461184e57600080fd5b50565b6000813590506118608161183a565b92915050565b6000806040838503121561187d5761187c6116fb565b5b600083013567ffffffffffffffff81111561189b5761189a611700565b5b6118a78582860161180c565b92505060206118b885828601611851565b9150509250929050565b6118cb816114c3565b82525050565b600082825260208201905092915050565b60006118ed8261158b565b6118f781856118d1565b93506119078185602086016115a7565b611910816115da565b840191505092915050565b600060808201905061193060008301876118c2565b818103602083015261194281866118e2565b905061195160408301856118c2565b81810360608301526119638184611645565b905095945050505050565b600060208284031215611984576119836116fb565b5b600061199284828501611851565b91505092915050565b600073ffffffffffffffffffffffffffffffffffffffff82169050919050565b60006119c68261199b565b9050919050565b6119d6816119bb565b82525050565b60008115159050919050565b6119f1816119dc565b82525050565b6000608082019050611a0c60008301876118c2565b8181036020830152611a1e81866118e2565b9050611a2d60408301856119cd565b611a3a60608301846119e8565b95945050505050565b611a4c816119bb565b8114611a5757600080fd5b50565b600081359050611a6981611a43565b92915050565b600060208284031215611a8557611a846116fb565b5b6000611a9384828501611a5a565b91505092915050565b6000602082019050611ab160008301846118c2565b92915050565b600060208284031215611acd57611acc6116fb565b5b600082013567ffffffffffffffff811115611aeb57611aea611700565b5b611af78482850161180c565b91505092915050565b600060a082019050611b1560008301886118c2565b8181036020830152611b2781876118e2565b9050611b3660408301866118c2565b611b4360608301856119cd565b611b5060808301846119e8565b9695505050505050565b60006020820190508181036000830152611b748184611645565b905092915050565b6000604082019050611b9160008301856118c2565b8181036020830152611ba381846118e2565b90509392505050565b7f4e487b7100000000000000000000000000000000000000000000000000000000600052601160045260246000fd5b6000611be6826114c3565b9150611bf1836114c3565b925082821015611c0457611c03611bac565b5b828203905092915050565b7f4e487b7100000000000000000000000000000000000000000000000000000000600052603260045260246000fd5b7f4e487b7100000000000000000000000000000000000000000000000000000000600052602260045260246000fd5b60006002820490506001821680611c8557607f821691505b602082108103611c9857611c97611c3e565b5b50919050565b6000611ca9826114c3565b91507fffffffffffffffffffffffffffffffffffffffffffffffffffffffffffffffff8203611cdb57611cda611bac565b5b600182019050919050565b7f546869732077616c6c657420697320616c72656164792072656769737465726560008201527f6420617320612070617469656e742e0000000000000000000000000000000000602082015250565b6000611d42602f836118d1565b9150611d4d82611ce6565b604082019050919050565b60006020820190508181036000830152611d7181611d35565b9050919050565b7f50617469656e74206e6f7420726567697374657265642e000000000000000000600082015250565b6000611dae6017836118d1565b9150611db982611d78565b602082019050919050565b60006020820190508181036000830152611ddd81611da1565b9050919050565b7f546869732077616c6c657420697320616c72656164792072656769737465726560008201527f64206173206120646f63746f722e000000000000000000000000000000000000602082015250565b6000611e40602e836118d1565b9150611e4b82611de4565b604082019050919050565b60006020820190508181036000830152611e6f81611e33565b9050919050565b7f596f75206d7573742062652061207265676973746572656420646f63746f722060008201527f746f2076696577207265636f7264732e00000000000000000000000000000000602082015250565b6000611ed26030836118d1565b9150611edd82611e76565b604082019050919050565b60006020820190508181036000830152611f0181611ec5565b9050919050565b7f50617469656e7420494420646f6573206e6f742065786973742e000000000000600082015250565b6000611f3e601a836118d1565b9150611f4982611f08565b602082019050919050565b60006020820190508181036000830152611f6d81611f31565b9050919050565b7f4163636573732064656e6965642e205468652070617469656e7420686173206e60008201527f6f74206772616e74656420796f752061636365737320746f207468656972207260208201527f65636f7264732e00000000000000000000000000000000000000000000000000604082015250565b6000611ff66047836118d1565b915061200182611f74565b606082019050919050565b6000602082019050818103600083015261202581611fe9565b9050919050565b7f596f75206d757374206265206120726567697374657265642070617469656e7460008201527f2e00000000000000000000000000000000000000000000000000000000000000602082015250565b60006120886021836118d1565b91506120938261202c565b604082019050919050565b600060208201905081810360008301526120b78161207b565b9050919050565b7f446f63746f7220494420646f6573206e6f742065786973742e00000000000000600082015250565b60006120f46019836118d1565b91506120ff826120be565b602082019050919050565b60006020820190508181036000830152612123816120e7565b9050919050565b7f596f75206d757374206265206120726567697374657265642070617469656e7460008201527f20746f20616464207265636f7264732e00000000000000000000000000000000602082015250565b60006121866030836118d1565b91506121918261212a565b604082019050919050565b600060208201905081810360008301526121b581612179565b9050919050565b7f446f63746f72206e6f7420726567697374657265642e00000000000000000000600082015250565b60006121f26016836118d1565b91506121fd826121bc565b602082019050919050565b60006020820190508181036000830152612221816121e5565b905091905056fea2646970667358221220cae16c3ea01c6e9a9b92359c8a7ca82917d416d4e465bc6496b903719522adcc64736f6c634300080d0033",
  "immutableReferences": {},
  "source": "// SPDX-License-Identifier: MIT\r\npragma solidity ^0.8.13;\r\n\r\n// A single, unified contract for all healthcare functions.\r\ncontract HealthChain {\r\n\r\n    // ----------- STATE VARIABLES -----------\r\n    uint public patientCounter;\r\n    uint public doctorCounter;\r\n\r\n    struct Patient {\r\n        uint id;\r\n        string name;\r\n        uint age;\r\n        address walletAddress;\r\n        bool isRegistered;\r\n        string[] medicalRecords;\r\n        mapping(uint => bool) accessGranted; // doctorId => hasAccess\r\n    }\r\n\r\n    struct Doctor {\r\n        uint id;\r\n        string name;\r\n        address walletAddress;\r\n        bool isRegistered;\r\n    }\r\n\r\n    // Mappings for direct lookup\r\n    mapping(address => uint) public addressToPatientId;\r\n    mapping(address => uint) public addressToDoctorId;\r\n    mapping(uint => Patient) public patients;\r\n    mapping(uint => Doctor) public doctors;\r\n\r\n    // ----------- PATIENT FUNCTIONS -----------\r\n    function registerPatient(string memory _name, uint _age) public {\r\n        require(addressToPatientId[msg.sender] == 0, \"This wallet is already registered as a patient.\");\r\n        patientCounter++;\r\n        addressToPatientId[msg.sender] = patientCounter;\r\n\r\n        Patient storage newPatient = patients[patientCounter];\r\n        newPatient.id = patientCounter;\r\n        newPatient.name = _name;\r\n        newPatient.age = _age;\r\n        newPatient.walletAddress = msg.sender;\r\n        newPatient.isRegistered = true;\r\n    }\r\n\r\n    function addRecord(string memory _recordHash) public {\r\n        uint patientId = addressToPatientId[msg.sender];\r\n        require(patientId != 0, \"You must be a registered patient to add records.\");\r\n        patients[patientId].medicalRecords.push(_recordHash);\r\n    }\r\n\r\n    function grantAccessById(uint _doctorId) public {\r\n        uint patientId = addressToPatientId[msg.sender];\r\n        require(patientId != 0, \"You must be a registered patient.\");\r\n        require(doctors[_doctorId].isRegistered, \"Doctor ID does not exist.\");\r\n        patients[patientId].accessGranted[_doctorId] = true;\r\n    }\r\n\r\n    function getMyPatientProfile() public view returns (uint, string memory, uint, string[] memory) {\r\n        uint patientId = addressToPatientId[msg.sender];\r\n        require(patientId != 0, \"Patient not registered.\");\r\n        Patient storage p = patients[patientId];\r\n        return (p.id, p.name, p.age, p.medicalRecords);\r\n    }\r\n\r\n    // ----------- DOCTOR FUNCTIONS -----------\r\n    function registerDoctor(string memory _name) public {\r\n        require(addressToDoctorId[msg.sender] == 0, \"This wallet is already registered as a doctor.\");\r\n        doctorCounter++;\r\n        addressToDoctorId[msg.sender] = doctorCounter;\r\n        doctors[doctorCounter] = Doctor(doctorCounter, _name, msg.sender, true);\r\n    }\r\n\r\n    function viewRecordsById(uint _patientId) public view returns (string[] memory) {\r\n        uint doctorId = addressToDoctorId[msg.sender];\r\n        require(doctorId != 0, \"You must be a registered doctor to view records.\");\r\n        require(patients[_patientId].isRegistered, \"Patient ID does not exist.\");\r\n        require(patients[_patientId].accessGranted[doctorId], \"Access denied. The patient has not granted you access to their records.\");\r\n        return patients[_patientId].medicalRecords;\r\n    }\r\n    \r\n    function getMyDoctorProfile() public view returns (uint, string memory) {\r\n        uint doctorId = addressToDoctorId[msg.sender];\r\n        require(doctorId != 0, \"Doctor not registered.\");\r\n        Doctor storage d = doctors[doctorId];\r\n        return (d.id, d.name);\r\n    }\r\n\r\n    // ----------- PUBLIC GETTER FUNCTIONS FOR DIRECTORIES -----------\r\n    function getAllDoctors() public view returns (uint[] memory, string[] memory) {\r\n        uint[] memory ids = new uint[](doctorCounter);\r\n        string[] memory names = new string[](doctorCounter);\r\n        for (uint i = 1; i <= doctorCounter; i++) {\r\n            ids[i-1] = doctors[i].id;\r\n            names[i-1] = doctors[i].name;\r\n        }\r\n        return (ids, names);\r\n    }\r\n\r\n    function getAllPatients() public view returns (uint[] memory, string[] memory) {\r\n        uint[] memory ids = new uint[](patientCounter);\r\n        string[] memory names = new string[](patientCounter);\r\n        for (uint i = 1; i <= patientCounter; i++) {\r\n            ids[i-1] = patients[i].id;\r\n            names[i-1] = patients[i].name;\r\n        }\r\n        return (ids, names);\r\n    }\r\n}",
  "sourcePath": "C:\\Users\\Aishwarya.Sreejith\\HealthcareBlockchain\\contracts\\HealthChain.sol",
  "compiler": {
    "name": "solc",
    "version": "0.8.13+commit.abaa5c0e.Emscripten.clang"
  },
  "schemaVersion": "3.4.16",
  "updatedAt": "2025-10-05T09:05:41.589Z",
  "networkType": "ethereum",
  "devdoc": {
    "kind": "dev",
    "methods": {},
    "version": 1
  },
  "userdoc": {
    "kind": "user",
    "methods": {},
    "version": 1
  }
}