{
  "contractName": "InsuranceClaim",
  "abi": [
    {
      "anonymous": false,
      "inputs": [
        {
          "indexed": false,
          "internalType": "uint256",
          "name": "id",
          "type": "uint256"
        },
        {
          "indexed": false,
          "internalType": "enum InsuranceClaim.Status",
          "name": "newStatus",
          "type": "uint8"
        },
        {
          "indexed": true,
          "internalType": "address",
          "name": "payer",
          "type": "address"
        }
      ],
      "name": "ClaimProcessed",
      "type": "event"
    },
    {
      "anonymous": false,
      "inputs": [
        {
          "indexed": false,
          "internalType": "uint256",
          "name": "id",
          "type": "uint256"
        },
        {
          "indexed": true,
          "internalType": "uint256",
          "name": "patientId",
          "type": "uint256"
        },
        {
          "indexed": false,
          "internalType": "string",
          "name": "procedureName",
          "type": "string"
        }
      ],
      "name": "ClaimSubmitted",
      "type": "event"
    },
    {
      "anonymous": false,
      "inputs": [
        {
          "indexed": false,
          "internalType": "uint256",
          "name": "id",
          "type": "uint256"
        },
        {
          "indexed": true,
          "internalType": "address",
          "name": "verifier",
          "type": "address"
        }
      ],
      "name": "ClaimVerified",
      "type": "event"
    },
    {
      "inputs": [
        {
          "internalType": "uint256",
          "name": "",
          "type": "uint256"
        }
      ],
      "name": "allClaimIds",
      "outputs": [
        {
          "internalType": "uint256",
          "name": "",
          "type": "uint256"
        }
      ],
      "stateMutability": "view",
      "type": "function",
      "constant": true
    },
    {
      "inputs": [],
      "name": "claimCounter",
      "outputs": [
        {
          "internalType": "uint256",
          "name": "",
          "type": "uint256"
        }
      ],
      "stateMutability": "view",
      "type": "function",
      "constant": true
    },
    {
      "inputs": [
        {
          "internalType": "uint256",
          "name": "",
          "type": "uint256"
        }
      ],
      "name": "claims",
      "outputs": [
        {
          "internalType": "uint256",
          "name": "id",
          "type": "uint256"
        },
        {
          "internalType": "uint256",
          "name": "patientId",
          "type": "uint256"
        },
        {
          "internalType": "string",
          "name": "procedureName",
          "type": "string"
        },
        {
          "internalType": "address",
          "name": "submittedBy",
          "type": "address"
        },
        {
          "internalType": "enum InsuranceClaim.Status",
          "name": "status",
          "type": "uint8"
        },
        {
          "internalType": "address",
          "name": "verifier",
          "type": "address"
        },
        {
          "internalType": "address",
          "name": "payer",
          "type": "address"
        }
      ],
      "stateMutability": "view",
      "type": "function",
      "constant": true
    },
    {
      "inputs": [
        {
          "internalType": "uint256",
          "name": "_patientId",
          "type": "uint256"
        },
        {
          "internalType": "string",
          "name": "_procedureName",
          "type": "string"
        }
      ],
      "name": "submitClaim",
      "outputs": [],
      "stateMutability": "nonpayable",
      "type": "function"
    },
    {
      "inputs": [
        {
          "internalType": "uint256",
          "name": "_claimId",
          "type": "uint256"
        }
      ],
      "name": "verifyClaim",
      "outputs": [],
      "stateMutability": "nonpayable",
      "type": "function"
    },
    {
      "inputs": [
        {
          "internalType": "uint256",
          "name": "_claimId",
          "type": "uint256"
        },
        {
          "internalType": "bool",
          "name": "_approve",
          "type": "bool"
        }
      ],
      "name": "processClaim",
      "outputs": [],
      "stateMutability": "nonpayable",
      "type": "function"
    },
    {
      "inputs": [],
      "name": "getAllClaimIds",
      "outputs": [
        {
          "internalType": "uint256[]",
          "name": "",
          "type": "uint256[]"
        }
      ],
      "stateMutability": "view",
      "type": "function",
      "constant": true
    }
  ],
  "bytecode": "0x608060405234801561001057600080fd5b506110f9806100206000396000f3fe608060405234801561001057600080fd5b506004361061007d5760003560e01c806345b465251161005b57806345b46525146100ec5780634efa8f1714610108578063a888c2cd14610126578063c0d7e2b61461015c5761007d565b806325fc3e4c146100825780632abfd6da146100b257806335446def146100d0575b600080fd5b61009c60048036038101906100979190610968565b610178565b6040516100a991906109a4565b60405180910390f35b6100ba61019c565b6040516100c79190610a7d565b60405180910390f35b6100ea60048036038101906100e59190610ad7565b6101f4565b005b61010660048036038101906101019190610c5d565b610392565b005b6101106105ed565b60405161011d91906109a4565b60405180910390f35b610140600480360381019061013b9190610968565b6105f3565b6040516101539796959493929190610df9565b60405180910390f35b61017660048036038101906101719190610968565b61072a565b005b6002818154811061018857600080fd5b906000526020600020016000915090505481565b606060028054806020026020016040519081016040528092919081815260200182805480156101ea57602002820191906000526020600020905b8154815260200190600101908083116101d6575b5050505050905090565b60006001600084815260200190815260200160002090506001600381111561021f5761021e610d82565b5b8160030160149054906101000a900460ff16600381111561024357610242610d82565b5b14610283576040517f08c379a000000000000000000000000000000000000000000000000000000000815260040161027a90610ee1565b60405180910390fd5b81156102bb5760028160030160146101000a81548160ff021916908360038111156102b1576102b0610d82565b5b02179055506102e9565b60038160030160146101000a81548160ff021916908360038111156102e3576102e2610d82565b5b02179055505b338160050160006101000a81548173ffffffffffffffffffffffffffffffffffffffff021916908373ffffffffffffffffffffffffffffffffffffffff1602179055503373ffffffffffffffffffffffffffffffffffffffff167f595d83bdcbf66dfc453ac39d9ce104a48994aee34969655abd174c6ea2486451848360030160149054906101000a900460ff16604051610385929190610f01565b60405180910390a2505050565b6000808154809291906103a490610f59565b91905055506040518060e0016040528060005481526020018381526020018281526020013373ffffffffffffffffffffffffffffffffffffffff168152602001600060038111156103f8576103f7610d82565b5b8152602001600073ffffffffffffffffffffffffffffffffffffffff168152602001600073ffffffffffffffffffffffffffffffffffffffff1681525060016000805481526020019081526020016000206000820151816000015560208201518160010155604082015181600201908051906020019061047992919061087b565b5060608201518160030160006101000a81548173ffffffffffffffffffffffffffffffffffffffff021916908373ffffffffffffffffffffffffffffffffffffffff16021790555060808201518160030160146101000a81548160ff021916908360038111156104ec576104eb610d82565b5b021790555060a08201518160040160006101000a81548173ffffffffffffffffffffffffffffffffffffffff021916908373ffffffffffffffffffffffffffffffffffffffff16021790555060c08201518160050160006101000a81548173ffffffffffffffffffffffffffffffffffffffff021916908373ffffffffffffffffffffffffffffffffffffffff16021790555090505060026000549080600181540180825580915050600190039060005260206000200160009091909190915055817f986bd47df8b0575dd1df01d7421a82d6cf65ebca7a82bf72125827a742e20d8f600054836040516105e1929190610fa1565b60405180910390a25050565b60005481565b600160205280600052604060002060009150905080600001549080600101549080600201805461062290611000565b80601f016020809104026020016040519081016040528092919081815260200182805461064e90611000565b801561069b5780601f106106705761010080835404028352916020019161069b565b820191906000526020600020905b81548152906001019060200180831161067e57829003601f168201915b5050505050908060030160009054906101000a900473ffffffffffffffffffffffffffffffffffffffff16908060030160149054906101000a900460ff16908060040160009054906101000a900473ffffffffffffffffffffffffffffffffffffffff16908060050160009054906101000a900473ffffffffffffffffffffffffffffffffffffffff16905087565b60006001600083815260200190815260200160002090506000600381111561075557610754610d82565b5b8160030160149054906101000a900460ff16600381111561077957610778610d82565b5b146107b9576040517f08c379a00000000000000000000000000000000000000000000000000000000081526004016107b0906110a3565b60405180910390fd5b60018160030160146101000a81548160ff021916908360038111156107e1576107e0610d82565b5b0217905550338160040160006101000a81548173ffffffffffffffffffffffffffffffffffffffff021916908373ffffffffffffffffffffffffffffffffffffffff1602179055503373ffffffffffffffffffffffffffffffffffffffff167f119c632db3d6f10445a49579e66bcdb959e6d6d08813402e950c6527edb09dc88360405161086f91906109a4565b60405180910390a25050565b82805461088790611000565b90600052602060002090601f0160209004810192826108a957600085556108f0565b82601f106108c257805160ff19168380011785556108f0565b828001600101855582156108f0579182015b828111156108ef5782518255916020019190600101906108d4565b5b5090506108fd9190610901565b5090565b5b8082111561091a576000816000905550600101610902565b5090565b6000604051905090565b600080fd5b600080fd5b6000819050919050565b61094581610932565b811461095057600080fd5b50565b6000813590506109628161093c565b92915050565b60006020828403121561097e5761097d610928565b5b600061098c84828501610953565b91505092915050565b61099e81610932565b82525050565b60006020820190506109b96000830184610995565b92915050565b600081519050919050565b600082825260208201905092915050565b6000819050602082019050919050565b6109f481610932565b82525050565b6000610a0683836109eb565b60208301905092915050565b6000602082019050919050565b6000610a2a826109bf565b610a3481856109ca565b9350610a3f836109db565b8060005b83811015610a70578151610a5788826109fa565b9750610a6283610a12565b925050600181019050610a43565b5085935050505092915050565b60006020820190508181036000830152610a978184610a1f565b905092915050565b60008115159050919050565b610ab481610a9f565b8114610abf57600080fd5b50565b600081359050610ad181610aab565b92915050565b60008060408385031215610aee57610aed610928565b5b6000610afc85828601610953565b9250506020610b0d85828601610ac2565b9150509250929050565b600080fd5b600080fd5b6000601f19601f8301169050919050565b7f4e487b7100000000000000000000000000000000000000000000000000000000600052604160045260246000fd5b610b6a82610b21565b810181811067ffffffffffffffff82111715610b8957610b88610b32565b5b80604052505050565b6000610b9c61091e565b9050610ba88282610b61565b919050565b600067ffffffffffffffff821115610bc857610bc7610b32565b5b610bd182610b21565b9050602081019050919050565b82818337600083830152505050565b6000610c00610bfb84610bad565b610b92565b905082815260208101848484011115610c1c57610c1b610b1c565b5b610c27848285610bde565b509392505050565b600082601f830112610c4457610c43610b17565b5b8135610c54848260208601610bed565b91505092915050565b60008060408385031215610c7457610c73610928565b5b6000610c8285828601610953565b925050602083013567ffffffffffffffff811115610ca357610ca261092d565b5b610caf85828601610c2f565b9150509250929050565b600081519050919050565b600082825260208201905092915050565b60005b83811015610cf3578082015181840152602081019050610cd8565b83811115610d02576000848401525b50505050565b6000610d1382610cb9565b610d1d8185610cc4565b9350610d2d818560208601610cd5565b610d3681610b21565b840191505092915050565b600073ffffffffffffffffffffffffffffffffffffffff82169050919050565b6000610d6c82610d41565b9050919050565b610d7c81610d61565b82525050565b7f4e487b7100000000000000000000000000000000000000000000000000000000600052602160045260246000fd5b60048110610dc257610dc1610d82565b5b50565b6000819050610dd382610db1565b919050565b6000610de382610dc5565b9050919050565b610df381610dd8565b82525050565b600060e082019050610e0e600083018a610995565b610e1b6020830189610995565b8181036040830152610e2d8188610d08565b9050610e3c6060830187610d73565b610e496080830186610dea565b610e5660a0830185610d73565b610e6360c0830184610d73565b98975050505050505050565b7f436c61696d206d757374206265207665726966696564206279206120646f637460008201527f6f722066697273742e0000000000000000000000000000000000000000000000602082015250565b6000610ecb602983610cc4565b9150610ed682610e6f565b604082019050919050565b60006020820190508181036000830152610efa81610ebe565b9050919050565b6000604082019050610f166000830185610995565b610f236020830184610dea565b9392505050565b7f4e487b7100000000000000000000000000000000000000000000000000000000600052601160045260246000fd5b6000610f6482610932565b91507fffffffffffffffffffffffffffffffffffffffffffffffffffffffffffffffff8203610f9657610f95610f2a565b5b600182019050919050565b6000604082019050610fb66000830185610995565b8181036020830152610fc88184610d08565b90509392505050565b7f4e487b7100000000000000000000000000000000000000000000000000000000600052602260045260246000fd5b6000600282049050600182168061101857607f821691505b60208210810361102b5761102a610fd1565b5b50919050565b7f436c61696d206973206e6f7420696e2061207375626d69747461626c6520737460008201527f6174652e00000000000000000000000000000000000000000000000000000000602082015250565b600061108d602483610cc4565b915061109882611031565b604082019050919050565b600060208201905081810360008301526110bc81611080565b905091905056fea26469706673582212204e9cab7c7a19d527630efa874de74248157655d709ce22f7d1d90791cbc5989564736f6c634300080d0033",
  "immutableReferences": {},
  "source": "// SPDX-License-Identifier: MIT\r\npragma solidity ^0.8.13;\r\n\r\ncontract InsuranceClaim {\r\n\r\n    struct Claim {\r\n        uint id;\r\n        uint patientId;\r\n        string procedureName;\r\n        address submittedBy; // Patient's wallet address\r\n        Status status;\r\n        address verifier; // Doctor's wallet address\r\n        address payer; // Insurance company's wallet address\r\n    }\r\n\r\n    enum Status { Submitted, VerifiedByDoctor, Approved, Rejected }\r\n\r\n    uint public claimCounter;\r\n    mapping(uint => Claim) public claims;\r\n    // --- NEW: A list of all claim IDs for easy retrieval ---\r\n    uint[] public allClaimIds;\r\n\r\n    event ClaimSubmitted(uint id, uint indexed patientId, string procedureName);\r\n    event ClaimVerified(uint id, address indexed verifier);\r\n    event ClaimProcessed(uint id, Status newStatus, address indexed payer);\r\n\r\n    function submitClaim(uint _patientId, string memory _procedureName) public {\r\n        claimCounter++;\r\n        claims[claimCounter] = Claim(claimCounter, _patientId, _procedureName, msg.sender, Status.Submitted, address(0), address(0));\r\n        allClaimIds.push(claimCounter); // Add to the global list\r\n        emit ClaimSubmitted(claimCounter, _patientId, _procedureName);\r\n    }\r\n\r\n    function verifyClaim(uint _claimId) public {\r\n        Claim storage claim = claims[_claimId];\r\n        require(claim.status == Status.Submitted, \"Claim is not in a submittable state.\");\r\n        claim.status = Status.VerifiedByDoctor;\r\n        claim.verifier = msg.sender;\r\n        emit ClaimVerified(_claimId, msg.sender);\r\n    }\r\n\r\n    function processClaim(uint _claimId, bool _approve) public {\r\n        Claim storage claim = claims[_claimId];\r\n        require(claim.status == Status.VerifiedByDoctor, \"Claim must be verified by a doctor first.\");\r\n        if (_approve) {\r\n            claim.status = Status.Approved;\r\n        } else {\r\n            claim.status = Status.Rejected;\r\n        }\r\n        claim.payer = msg.sender;\r\n        emit ClaimProcessed(_claimId, claim.status, msg.sender);\r\n    }\r\n    \r\n    // --- NEW: A function to get all claim IDs ---\r\n    function getAllClaimIds() public view returns (uint[] memory) {\r\n        return allClaimIds;\r\n    }\r\n}\r\n\r\n",
  "sourcePath": "C:\\Users\\Aishwarya.Sreejith\\HealthcareBlockchain\\contracts\\InsuranceClaim.sol",
  "compiler": {
    "name": "solc",
    "version": "0.8.13+commit.abaa5c0e.Emscripten.clang"
  },
  "schemaVersion": "3.4.16",
  "updatedAt": "2025-10-05T10:26:16.835Z",
  "networkType": "ethereum",
  "devdoc": {
    "kind": "dev",
    "methods": {},
    "version": 1
  },
  "userdoc": {
    "kind": "user",
    "methods": {},
    "version": 1
  }
}