{
  "contractName": "InsuranceClaim",
  "abi": [
    {
      "anonymous": false,
      "inputs": [
        {
          "indexed": false,
          "internalType": "uint256",
          "name": "id",
          "type": "uint256"
        },
        {
          "indexed": false,
          "internalType": "enum InsuranceClaim.Status",
          "name": "newStatus",
          "type": "uint8"
        },
        {
          "indexed": true,
          "internalType": "address",
          "name": "payer",
          "type": "address"
        }
      ],
      "name": "ClaimProcessed",
      "type": "event"
    },
    {
      "anonymous": false,
      "inputs": [
        {
          "indexed": false,
          "internalType": "uint256",
          "name": "id",
          "type": "uint256"
        },
        {
          "indexed": true,
          "internalType": "uint256",
          "name": "patientId",
          "type": "uint256"
        },
        {
          "indexed": false,
          "internalType": "string",
          "name": "procedureName",
          "type": "string"
        }
      ],
      "name": "ClaimSubmitted",
      "type": "event"
    },
    {
      "anonymous": false,
      "inputs": [
        {
          "indexed": false,
          "internalType": "uint256",
          "name": "id",
          "type": "uint256"
        },
        {
          "indexed": true,
          "internalType": "address",
          "name": "verifier",
          "type": "address"
        }
      ],
      "name": "ClaimVerified",
      "type": "event"
    },
    {
      "inputs": [
        {
          "internalType": "uint256",
          "name": "",
          "type": "uint256"
        }
      ],
      "name": "allClaimIds",
      "outputs": [
        {
          "internalType": "uint256",
          "name": "",
          "type": "uint256"
        }
      ],
      "stateMutability": "view",
      "type": "function",
      "constant": true
    },
    {
      "inputs": [],
      "name": "claimCounter",
      "outputs": [
        {
          "internalType": "uint256",
          "name": "",
          "type": "uint256"
        }
      ],
      "stateMutability": "view",
      "type": "function",
      "constant": true
    },
    {
      "inputs": [
        {
          "internalType": "uint256",
          "name": "",
          "type": "uint256"
        }
      ],
      "name": "claims",
      "outputs": [
        {
          "internalType": "uint256",
          "name": "id",
          "type": "uint256"
        },
        {
          "internalType": "uint256",
          "name": "patientId",
          "type": "uint256"
        },
        {
          "internalType": "string",
          "name": "procedureName",
          "type": "string"
        },
        {
          "internalType": "address",
          "name": "submittedBy",
          "type": "address"
        },
        {
          "internalType": "enum InsuranceClaim.Status",
          "name": "status",
          "type": "uint8"
        },
        {
          "internalType": "address",
          "name": "verifier",
          "type": "address"
        },
        {
          "internalType": "address",
          "name": "payer",
          "type": "address"
        }
      ],
      "stateMutability": "view",
      "type": "function",
      "constant": true
    },
    {
      "inputs": [
        {
          "internalType": "uint256",
          "name": "_patientId",
          "type": "uint256"
        },
        {
          "internalType": "string",
          "name": "_procedureName",
          "type": "string"
        },
        {
          "internalType": "string[]",
          "name": "_docNames",
          "type": "string[]"
        },
        {
          "internalType": "string[]",
          "name": "_fileHashes",
          "type": "string[]"
        },
        {
          "internalType": "string[]",
          "name": "_decryptionKeys",
          "type": "string[]"
        }
      ],
      "name": "submitClaim",
      "outputs": [],
      "stateMutability": "nonpayable",
      "type": "function"
    },
    {
      "inputs": [
        {
          "internalType": "uint256",
          "name": "_claimId",
          "type": "uint256"
        }
      ],
      "name": "verifyClaim",
      "outputs": [],
      "stateMutability": "nonpayable",
      "type": "function"
    },
    {
      "inputs": [
        {
          "internalType": "uint256",
          "name": "_claimId",
          "type": "uint256"
        },
        {
          "internalType": "bool",
          "name": "_approve",
          "type": "bool"
        }
      ],
      "name": "processClaim",
      "outputs": [],
      "stateMutability": "nonpayable",
      "type": "function"
    },
    {
      "inputs": [],
      "name": "getAllClaimIds",
      "outputs": [
        {
          "internalType": "uint256[]",
          "name": "",
          "type": "uint256[]"
        }
      ],
      "stateMutability": "view",
      "type": "function",
      "constant": true
    },
    {
      "inputs": [
        {
          "internalType": "uint256",
          "name": "_claimId",
          "type": "uint256"
        }
      ],
      "name": "getClaimDocuments",
      "outputs": [
        {
          "components": [
            {
              "internalType": "string",
              "name": "docName",
              "type": "string"
            },
            {
              "internalType": "string",
              "name": "fileHash",
              "type": "string"
            },
            {
              "internalType": "string",
              "name": "decryptionKey",
              "type": "string"
            }
          ],
          "internalType": "struct InsuranceClaim.ClaimDocument[]",
          "name": "",
          "type": "tuple[]"
        }
      ],
      "stateMutability": "view",
      "type": "function",
      "constant": true
    }
  ],
  "bytecode": "0x608060405234801561001057600080fd5b5061173b806100206000396000f3fe608060405234801561001057600080fd5b50600436106100885760003560e01c806362f4d2171161005b57806362f4d21714610115578063675f1f7f14610145578063a888c2cd14610161578063c0d7e2b61461019757610088565b806325fc3e4c1461008d5780632abfd6da146100bd57806335446def146100db5780634efa8f17146100f7575b600080fd5b6100a760048036038101906100a29190610c0e565b6101b3565b6040516100b49190610c4a565b60405180910390f35b6100c56101d7565b6040516100d29190610d23565b60405180910390f35b6100f560048036038101906100f09190610d7d565b61022f565b005b6100ff6103cd565b60405161010c9190610c4a565b60405180910390f35b61012f600480360381019061012a9190610c0e565b6103d3565b60405161013c9190610f76565b60405180910390f35b61015f600480360381019061015a91906111b3565b6105fe565b005b61017b60048036038101906101769190610c0e565b610899565b60405161018e97969594939291906113a0565b60405180910390f35b6101b160048036038101906101ac9190610c0e565b6109d0565b005b600281815481106101c357600080fd5b906000526020600020016000915090505481565b6060600280548060200260200160405190810160405280929190818152602001828054801561022557602002820191906000526020600020905b815481526020019060010190808311610211575b5050505050905090565b60006001600084815260200190815260200160002090506001600381111561025a57610259611329565b5b8160030160149054906101000a900460ff16600381111561027e5761027d611329565b5b146102be576040517f08c379a00000000000000000000000000000000000000000000000000000000081526004016102b590611488565b60405180910390fd5b81156102f65760028160030160146101000a81548160ff021916908360038111156102ec576102eb611329565b5b0217905550610324565b60038160030160146101000a81548160ff0219169083600381111561031e5761031d611329565b5b02179055505b338160050160006101000a81548173ffffffffffffffffffffffffffffffffffffffff021916908373ffffffffffffffffffffffffffffffffffffffff1602179055503373ffffffffffffffffffffffffffffffffffffffff167f595d83bdcbf66dfc453ac39d9ce104a48994aee34969655abd174c6ea2486451848360030160149054906101000a900460ff166040516103c09291906114a8565b60405180910390a2505050565b60005481565b606060016000838152602001908152602001600020600601805480602002602001604051908101604052809291908181526020016000905b828210156105f3578382906000526020600020906003020160405180606001604052908160008201805461043e90611500565b80601f016020809104026020016040519081016040528092919081815260200182805461046a90611500565b80156104b75780601f1061048c576101008083540402835291602001916104b7565b820191906000526020600020905b81548152906001019060200180831161049a57829003601f168201915b505050505081526020016001820180546104d090611500565b80601f01602080910402602001604051908101604052809291908181526020018280546104fc90611500565b80156105495780601f1061051e57610100808354040283529160200191610549565b820191906000526020600020905b81548152906001019060200180831161052c57829003601f168201915b5050505050815260200160028201805461056290611500565b80601f016020809104026020016040519081016040528092919081815260200182805461058e90611500565b80156105db5780601f106105b0576101008083540402835291602001916105db565b820191906000526020600020905b8154815290600101906020018083116105be57829003601f168201915b5050505050815250508152602001906001019061040b565b505050509050919050565b81518351148015610610575080518251145b61064f576040517f08c379a00000000000000000000000000000000000000000000000000000000081526004016106469061157d565b60405180910390fd5b600080815480929190610661906115cc565b91905055506000600160008054815260200190815260200160002090506000548160000181905550858160010181905550848160020190805190602001906106aa929190610b21565b50338160030160006101000a81548173ffffffffffffffffffffffffffffffffffffffff021916908373ffffffffffffffffffffffffffffffffffffffff16021790555060008160030160146101000a81548160ff0219169083600381111561071657610715611329565b5b021790555060005b84518110156108295781600601604051806060016040528087848151811061074957610748611614565b5b6020026020010151815260200186848151811061076957610768611614565b5b6020026020010151815260200185848151811061078957610788611614565b5b6020026020010151815250908060018154018082558091505060019003906000526020600020906003020160009091909190915060008201518160000190805190602001906107d9929190610b21565b5060208201518160010190805190602001906107f6929190610b21565b506040820151816002019080519060200190610813929190610b21565b5050508080610821906115cc565b91505061071e565b5060026000549080600181540180825580915050600190039060005260206000200160009091909190915055857f986bd47df8b0575dd1df01d7421a82d6cf65ebca7a82bf72125827a742e20d8f60005487604051610889929190611643565b60405180910390a2505050505050565b60016020528060005260406000206000915090508060000154908060010154908060020180546108c890611500565b80601f01602080910402602001604051908101604052809291908181526020018280546108f490611500565b80156109415780601f1061091657610100808354040283529160200191610941565b820191906000526020600020905b81548152906001019060200180831161092457829003601f168201915b5050505050908060030160009054906101000a900473ffffffffffffffffffffffffffffffffffffffff16908060030160149054906101000a900460ff16908060040160009054906101000a900473ffffffffffffffffffffffffffffffffffffffff16908060050160009054906101000a900473ffffffffffffffffffffffffffffffffffffffff16905087565b6000600160008381526020019081526020016000209050600060038111156109fb576109fa611329565b5b8160030160149054906101000a900460ff166003811115610a1f57610a1e611329565b5b14610a5f576040517f08c379a0000000000000000000000000000000000000000000000000000000008152600401610a56906116e5565b60405180910390fd5b60018160030160146101000a81548160ff02191690836003811115610a8757610a86611329565b5b0217905550338160040160006101000a81548173ffffffffffffffffffffffffffffffffffffffff021916908373ffffffffffffffffffffffffffffffffffffffff1602179055503373ffffffffffffffffffffffffffffffffffffffff167f119c632db3d6f10445a49579e66bcdb959e6d6d08813402e950c6527edb09dc883604051610b159190610c4a565b60405180910390a25050565b828054610b2d90611500565b90600052602060002090601f016020900481019282610b4f5760008555610b96565b82601f10610b6857805160ff1916838001178555610b96565b82800160010185558215610b96579182015b82811115610b95578251825591602001919060010190610b7a565b5b509050610ba39190610ba7565b5090565b5b80821115610bc0576000816000905550600101610ba8565b5090565b6000604051905090565b600080fd5b600080fd5b6000819050919050565b610beb81610bd8565b8114610bf657600080fd5b50565b600081359050610c0881610be2565b92915050565b600060208284031215610c2457610c23610bce565b5b6000610c3284828501610bf9565b91505092915050565b610c4481610bd8565b82525050565b6000602082019050610c5f6000830184610c3b565b92915050565b600081519050919050565b600082825260208201905092915050565b6000819050602082019050919050565b610c9a81610bd8565b82525050565b6000610cac8383610c91565b60208301905092915050565b6000602082019050919050565b6000610cd082610c65565b610cda8185610c70565b9350610ce583610c81565b8060005b83811015610d16578151610cfd8882610ca0565b9750610d0883610cb8565b925050600181019050610ce9565b5085935050505092915050565b60006020820190508181036000830152610d3d8184610cc5565b905092915050565b60008115159050919050565b610d5a81610d45565b8114610d6557600080fd5b50565b600081359050610d7781610d51565b92915050565b60008060408385031215610d9457610d93610bce565b5b6000610da285828601610bf9565b9250506020610db385828601610d68565b9150509250929050565b600081519050919050565b600082825260208201905092915050565b6000819050602082019050919050565b600081519050919050565b600082825260208201905092915050565b60005b83811015610e23578082015181840152602081019050610e08565b83811115610e32576000848401525b50505050565b6000601f19601f8301169050919050565b6000610e5482610de9565b610e5e8185610df4565b9350610e6e818560208601610e05565b610e7781610e38565b840191505092915050565b60006060830160008301518482036000860152610e9f8282610e49565b91505060208301518482036020860152610eb98282610e49565b91505060408301518482036040860152610ed38282610e49565b9150508091505092915050565b6000610eec8383610e82565b905092915050565b6000602082019050919050565b6000610f0c82610dbd565b610f168185610dc8565b935083602082028501610f2885610dd9565b8060005b85811015610f645784840389528151610f458582610ee0565b9450610f5083610ef4565b925060208a01995050600181019050610f2c565b50829750879550505050505092915050565b60006020820190508181036000830152610f908184610f01565b905092915050565b600080fd5b600080fd5b7f4e487b7100000000000000000000000000000000000000000000000000000000600052604160045260246000fd5b610fda82610e38565b810181811067ffffffffffffffff82111715610ff957610ff8610fa2565b5b80604052505050565b600061100c610bc4565b90506110188282610fd1565b919050565b600067ffffffffffffffff82111561103857611037610fa2565b5b61104182610e38565b9050602081019050919050565b82818337600083830152505050565b600061107061106b8461101d565b611002565b90508281526020810184848401111561108c5761108b610f9d565b5b61109784828561104e565b509392505050565b600082601f8301126110b4576110b3610f98565b5b81356110c484826020860161105d565b91505092915050565b600067ffffffffffffffff8211156110e8576110e7610fa2565b5b602082029050602081019050919050565b600080fd5b600061111161110c846110cd565b611002565b90508083825260208201905060208402830185811115611134576111336110f9565b5b835b8181101561117b57803567ffffffffffffffff81111561115957611158610f98565b5b808601611166898261109f565b85526020850194505050602081019050611136565b5050509392505050565b600082601f83011261119a57611199610f98565b5b81356111aa8482602086016110fe565b91505092915050565b600080600080600060a086880312156111cf576111ce610bce565b5b60006111dd88828901610bf9565b955050602086013567ffffffffffffffff8111156111fe576111fd610bd3565b5b61120a8882890161109f565b945050604086013567ffffffffffffffff81111561122b5761122a610bd3565b5b61123788828901611185565b935050606086013567ffffffffffffffff81111561125857611257610bd3565b5b61126488828901611185565b925050608086013567ffffffffffffffff81111561128557611284610bd3565b5b61129188828901611185565b9150509295509295909350565b600082825260208201905092915050565b60006112ba82610de9565b6112c4818561129e565b93506112d4818560208601610e05565b6112dd81610e38565b840191505092915050565b600073ffffffffffffffffffffffffffffffffffffffff82169050919050565b6000611313826112e8565b9050919050565b61132381611308565b82525050565b7f4e487b7100000000000000000000000000000000000000000000000000000000600052602160045260246000fd5b6004811061136957611368611329565b5b50565b600081905061137a82611358565b919050565b600061138a8261136c565b9050919050565b61139a8161137f565b82525050565b600060e0820190506113b5600083018a610c3b565b6113c26020830189610c3b565b81810360408301526113d481886112af565b90506113e3606083018761131a565b6113f06080830186611391565b6113fd60a083018561131a565b61140a60c083018461131a565b98975050505050505050565b7f436c61696d206d757374206265207665726966696564206279206120646f637460008201527f6f722066697273742e0000000000000000000000000000000000000000000000602082015250565b600061147260298361129e565b915061147d82611416565b604082019050919050565b600060208201905081810360008301526114a181611465565b9050919050565b60006040820190506114bd6000830185610c3b565b6114ca6020830184611391565b9392505050565b7f4e487b7100000000000000000000000000000000000000000000000000000000600052602260045260246000fd5b6000600282049050600182168061151857607f821691505b60208210810361152b5761152a6114d1565b5b50919050565b7f446f63756d656e742064617461206d69736d6174636800000000000000000000600082015250565b600061156760168361129e565b915061157282611531565b602082019050919050565b600060208201905081810360008301526115968161155a565b9050919050565b7f4e487b7100000000000000000000000000000000000000000000000000000000600052601160045260246000fd5b60006115d782610bd8565b91507fffffffffffffffffffffffffffffffffffffffffffffffffffffffffffffffff82036116095761160861159d565b5b600182019050919050565b7f4e487b7100000000000000000000000000000000000000000000000000000000600052603260045260246000fd5b60006040820190506116586000830185610c3b565b818103602083015261166a81846112af565b90509392505050565b7f436c61696d206973206e6f7420696e2061207375626d69747461626c6520737460008201527f6174652e00000000000000000000000000000000000000000000000000000000602082015250565b60006116cf60248361129e565b91506116da82611673565b604082019050919050565b600060208201905081810360008301526116fe816116c2565b905091905056fea2646970667358221220e3dc3c3e4947c866b0d34d08e31be0d73b77df6ef10f4a7b617034b402cfc49464736f6c634300080d0033",
  "immutableReferences": {},
  "source": "// SPDX-License-Identifier: MIT\r\npragma solidity ^0.8.13;\r\n\r\ncontract InsuranceClaim {\r\n\r\n    struct ClaimDocument {\r\n        string docName;\r\n        string fileHash;\r\n        string decryptionKey;\r\n    }\r\n\r\n    struct Claim {\r\n        uint id;\r\n        uint patientId;\r\n        string procedureName;\r\n        address submittedBy;\r\n        Status status;\r\n        address verifier;\r\n        address payer;\r\n        ClaimDocument[] supportingDocuments;\r\n    }\r\n\r\n    enum Status { Submitted, VerifiedByDoctor, Approved, Rejected }\r\n\r\n    uint public claimCounter;\r\n    mapping(uint => Claim) public claims;\r\n    uint[] public allClaimIds;\r\n\r\n    event ClaimSubmitted(uint id, uint indexed patientId, string procedureName);\r\n    event ClaimVerified(uint id, address indexed verifier);\r\n    event ClaimProcessed(uint id, Status newStatus, address indexed payer);\r\n\r\n    function submitClaim(uint _patientId, string memory _procedureName, string[] memory _docNames, string[] memory _fileHashes, string[] memory _decryptionKeys) public {\r\n        require(_docNames.length == _fileHashes.length && _fileHashes.length == _decryptionKeys.length, \"Document data mismatch\");\r\n\r\n        claimCounter++;\r\n        Claim storage newClaim = claims[claimCounter];\r\n        newClaim.id = claimCounter;\r\n        newClaim.patientId = _patientId;\r\n        newClaim.procedureName = _procedureName;\r\n        newClaim.submittedBy = msg.sender;\r\n        newClaim.status = Status.Submitted;\r\n\r\n        for (uint i = 0; i < _docNames.length; i++) {\r\n            newClaim.supportingDocuments.push(ClaimDocument(_docNames[i], _fileHashes[i], _decryptionKeys[i]));\r\n        }\r\n\r\n        allClaimIds.push(claimCounter);\r\n        emit ClaimSubmitted(claimCounter, _patientId, _procedureName);\r\n    }\r\n\r\n    // --- FIX: Added the logic for verifyClaim ---\r\n    function verifyClaim(uint _claimId) public {\r\n        Claim storage claim = claims[_claimId];\r\n        require(claim.status == Status.Submitted, \"Claim is not in a submittable state.\");\r\n        // In a real app, you would add a check here to ensure msg.sender is a registered doctor\r\n        claim.status = Status.VerifiedByDoctor;\r\n        claim.verifier = msg.sender;\r\n        emit ClaimVerified(_claimId, msg.sender);\r\n    }\r\n\r\n    // --- FIX: Added the logic for processClaim ---\r\n    function processClaim(uint _claimId, bool _approve) public {\r\n        Claim storage claim = claims[_claimId];\r\n        require(claim.status == Status.VerifiedByDoctor, \"Claim must be verified by a doctor first.\");\r\n        // In a real app, you would add a check here to ensure msg.sender is a registered insurer\r\n        if (_approve) {\r\n            claim.status = Status.Approved;\r\n        } else {\r\n            claim.status = Status.Rejected;\r\n        }\r\n        claim.payer = msg.sender;\r\n        emit ClaimProcessed(_claimId, claim.status, msg.sender);\r\n    }\r\n    \r\n    function getAllClaimIds() public view returns (uint[] memory) {\r\n        return allClaimIds;\r\n    }\r\n\r\n    function getClaimDocuments(uint _claimId) public view returns (ClaimDocument[] memory) {\r\n        // Add security here in a real app (e.g., only doctor/insurer)\r\n        return claims[_claimId].supportingDocuments;\r\n    }\r\n}",
  "sourcePath": "C:\\Users\\Aishwarya.Sreejith\\HealthcareBlockchain\\contracts\\InsuranceClaim.sol",
  "compiler": {
    "name": "solc",
    "version": "0.8.13+commit.abaa5c0e.Emscripten.clang"
  },
  "schemaVersion": "3.4.16",
  "updatedAt": "2025-11-13T19:12:32.812Z",
  "networkType": "ethereum",
  "devdoc": {
    "kind": "dev",
    "methods": {},
    "version": 1
  },
  "userdoc": {
    "kind": "user",
    "methods": {},
    "version": 1
  }
}